:020000040800F2
:10A000000000012059B9000811B8000819B800086B
:10A0100021B8000829B8000831B800080000000085
:10A0200000000000000000000000000039B8000837
:10A0300047B800080000000055B8000863B80008E1
:10A04000A9B90008A9B90008A9B90008A9B9000868
:10A05000A9B90008A9B90008A9B90008A9B9000858
:10A06000A9B90008A9B90008A9B90008A9B9000848
:10A07000A9B90008A9B90008A9B90008A9B9000838
:10A08000A9B90008A9B90008A9B90008A9B9000828
:10A09000A9B90008A9B90008A9B90008A9B9000818
:10A0A000A9B90008A9B90008A9B90008A9B9000808
:10A0B000A9B900080000000000000000A9B90008CC
:10A0C000A9B90008A9B90008A9B90008A9B90008E8
:10A0D000A9B9000871B80008A9B90008A9B9000811
:10A0E000A9B90008A9B9000800000000000000009C
:10A0F0000000000000000000000000000000000060
:10A1000000000000A9B9000800000000A9B900087B
:10A110000000000000000000A9B90008A9B900086B
:10A12000A9B90008A9B90008A9B90008A9B9000887
:10A13000A9B90008000000000000000000000000B5
:10A14000A9B90008A9B90008A9B9000800000000D1
:10A15000A9B90008A9B90008A9B90008A9B9000857
:10A16000A9B90008A9B90008A9B9000800000000B1
:10A17000A9B90008A9B9000800000000000000000B
:0CA18000A9B90008A9B90008A9B9000895
:10A18C0010B5054C237833B9044B13B10448AFF325
:10A19C0000800123237010BD2C0000200000000063
:10A1AC00BCFE000808B5034B1BB103490348AFF3D1
:10A1BC00008008BD0000000030000020BCFE00083C
:10A1CC0081F0004102E000BF83F0004330B54FEA5C
:10A1DC0041044FEA430594EA050F08BF90EA020FC9
:10A1EC001FBF54EA000C55EA020C7FEA645C7FEA5C
:10A1FC00655C00F0E2804FEA5454D4EB5555B8BF7F
:10A20C006D420CDD2C4480EA020281EA030382EAEF
:10A21C00000083EA010180EA020281EA0303362D81
:10A22C0088BF30BD11F0004F4FEA01314FF4801C54
:10A23C004CEA113102D0404261EB410113F0004F66
:10A24C004FEA03334CEA133302D0524263EB43031D
:10A25C0094EA050F00F0A780A4F10104D5F1200EBB
:10A26C000DDB02FA0EFC22FA05F2801841F1000116
:10A27C0003FA0EF2801843FA05F359410EE0A5F1EA
:10A28C0020050EF1200E012A03FA0EFC28BF4CF01B
:10A29C00020C43FA05F3C01851EBE37101F00045D1
:10A2AC0007D54FF0000EDCF1000C7EEB00006EEBDE
:10A2BC000101B1F5801F1BD3B1F5001F0CD3490868
:10A2CC005FEA30004FEA3C0C04F101044FEA4452BF
:10A2DC0012F5800F80F09A80BCF1004F08BF5FEA46
:10A2EC00500C50F1000041EB045141EA050130BD26
:10A2FC005FEA4C0C404141EB0101013C28BFB1F538
:10A30C00801FE9D291F0000F04BF01460020B1FA82
:10A31C0081F308BF2033A3F10B03B3F120020CDA55
:10A32C000C3208DD02F1140CC2F10C0201FA0CF033
:10A33C0021FA02F10CE002F11402D8BFC2F1200C98
:10A34C0001FA02F120FA0CFCDCBF41EA0C0190404E
:10A35C00E41AA2BF01EB0451294330BD6FEA040497
:10A36C001F3C1CDA0C340EDC04F11404C4F1200282
:10A37C0020FA04F001FA02F340EA030021FA04F394
:10A38C0045EA030130BDC4F10C04C4F1200220FAEB
:10A39C0002F001FA04F340EA0300294630BD21FA29
:10A3AC0004F0294630BD94F0000F83F4801306BFEF
:10A3BC0081F480110134013D4EE77FEA645C18BFE3
:10A3CC007FEA655C29D094EA050F08BF90EA020F7A
:10A3DC0005D054EA000C04BF1946104630BD91EA72
:10A3EC00030F1EBF0021002030BD5FEA545C05D175
:10A3FC004000494128BF41F0004130BD14F58004B4
:10A40C003CBF01F5801130BD01F0004545F0FE4127
:10A41C0041F470014FF0000030BD7FEA645C1ABF5C
:10A42C00194610467FEA655C1CBF0B46024650EA93
:10A43C00013406BF52EA033591EA030F41F40021BF
:10A44C0030BD00BF90F0000F04BF0021704730B545
:10A45C004FF4806404F132044FF000054FF000011A
:10A46C0050E700BF90F0000F04BF0021704730B5DB
:10A47C004FF4806404F1320410F0004548BF4042B0
:10A48C004FF000013EE700BF42004FEAE2014FEA05
:10A49C0031014FEA02701FBF12F07F4393F07F4FE0
:10A4AC0081F06051704732F07F4208BF704793F0E3
:10A4BC007F4F04BF41F40021704730B54FF46074F6
:10A4CC0001F0004521F000411CE700BF50EA0102F9
:10A4DC0008BF704730B54FF000050AE050EA0102A2
:10A4EC0008BF704730B511F0004502D5404261EB12
:10A4FC0041014FF4806404F132045FEA915C3FF453
:10A50C00D8AE4FF003025FEADC0C18BF03325FEAEF
:10A51C00DC0C18BF033202EBDC02C2F1200300FAA0
:10A52C0003FC20FA02F001FA03FE40EA0E0021FAC5
:10A53C0002F11444BDE600BF4A0011D212F500121C
:10A54C0011D20DD56FF47873B3EB62520ED44FEA7F
:10A55C00C12343F0004343EA505323FA02F07047FF
:10A56C004FF00000704750EA013002D14FF0FF303D
:10A57C0070474FF00000704753B94AB9002908BF23
:10A58C0000281CBF4FF0FF314FF0FF3000F06AB9CC
:10A59C00ADF1080C6DE904CE00F006F8DDF804E02E
:10A5AC00DDE9022304B070472DE9F047089D0C4605
:10A5BC00002B4ED194468C458646B2FA82F262D973
:10A5CC004AB1C2F12003914020FA03F30CFA02FCC9
:10A5DC00194300FA02FE4FEA1C471FFA8CF6B1FB36
:10A5EC00F7F44FEA1E4307FB141143EA014304FB43
:10A5FC0006F199420AD91CEB030304F1FF3080F0F9
:10A60C001281994240F20F81023C6344591A1FFA9D
:10A61C008EF3B1FBF7F007FB101143EA014300FB8B
:10A62C0006F69E420AD91CEB030300F1FF3180F0C1
:10A63C00FC809E4240F2F980634402389B1B40EA46
:10A64C00044000211DB1D3400022C5E90032BDE811
:10A65C00F0878B4205D90DB1C5E9000100210846F0
:10A66C00F5E7B3FA83F1002946D1A34202D3904215
:10A67C00C0F0F080861A64EB03030120002DE6D0B5
:10A68C00C5E90063E3E7002A40F09080A1EB0C04DD
:10A69C004FEA1C481FFA8CF70121B4FBF8F64FEA7D
:10A6AC001E4308FB164443EA044307FB06F098429A
:10A6BC0008D91CEB030306F1FF3402D2984200F2D6
:10A6CC00CD8026461C1A1FFA8EF3B4FBF8F008FB5B
:10A6DC00104443EA044300FB07F79F4208D91CEBE4
:10A6EC00030300F1FF3402D29F4200F2B0802046F7
:10A6FC00DB1B40EA0640A5E7C1F120068B4022FA9D
:10A70C0006F71F4320FA06FC04FA01F343EA0C0394
:10A71C00F44000FA01F8380C4FEA1349B4FBF0FE90
:10A72C001FFA87FC00FB1E4449EA04440EFB0CF99B
:10A73C00A14502FA01F20AD93C190EF1FF3A80F058
:10A74C008480A14540F28180AEF1020E3C44A4EB22
:10A75C0009041FFA83F9B4FBF0F300FB134449EA34
:10A76C00044403FB0CFCA44507D93C1903F1FF304E
:10A77C0067D2A44565D9023B3C4443EA0E40A0FB9A
:10A78C000293A4EB0C049C42CE469C4651D34ED073
:10A79C0055B1B8EB0E0364EB0C0404FA06F6CB408F
:10A7AC001E43CC40C5E90064002150E7C2F12003F0
:10A7BC0020FA03F10CFA02FC24FA03F394400C4344
:10A7CC004FEA1C4800FA02FE1FFA8CF7B3FBF8F0B4
:10A7DC0008FB1031230C43EA014300FB07F19942BB
:10A7EC0008D91CEB030300F1FF362CD299422AD96D
:10A7FC00023863445B1AA4B2B3FBF8F108FB1133C3
:10A80C0044EA034401FB07F3A34208D91CEB0404FC
:10A81C0001F1FF3613D2A34211D902396444E41A70
:10A82C0041EA004139E70446F0E6084606E7C84528
:10A83C00AED2B9EB020E63EB070C0138A8E7314638
:10A84C00EDE7034699E73046D4E7D6467FE7634405
:10A85C0002384DE70646234608460FE7023E63449E
:10A86C0030E700BF704700BF80B483B000AF7860A2
:10A87C007B6803F17843DB0A18460C37BD465DF85C
:10A88C00047B704780B588B000AF786039600123D5
:10A89C003B613B68BB617B687B610023FB6001F023
:10A8AC0009FB07F1080207F10C031146184601F0E9
:10A8BC00E5FB0346FB77FB7F002B03D001F01CFB71
:10A8CC00FB7F02E001F018FBFB7F18462037BD46EA
:10A8DC0080BD90B5ADF6240D00AF07F50264A4F66B
:10A8EC001404206007F50260A0F61800016007F55B
:10A8FC000261A1F61C010A601A4607F50263A3F671
:10A90C001E031A8007F11003C7F8143807F110035F
:10A91C004FF400620021184605F04AFA0023C7F8EC
:10A92C001C3818E0D7F81C38DA0007F50263A3F6D8
:10A93C0014031B6813441846D7F81C38DB00D7F8EF
:10A94C001428D118D0E90023C1E90023D7F81C380A
:10A95C000133C7F81C38D7F81C38FF2BE2D907F1A4
:10A96C00100207F50263A3F618031B68D01807F54D
:10A97C000263A3F61E031A8807F50263A3F61C03F1
:10A98C00196805F041FA07F50263A3F61403186879
:10A99C00FFF76AFFC7F8100800BF0121D7F81008AD
:10A9AC00FFF770FF0346002BF7D101F083FA002369
:10A9BC00C7F81C3824E0D7F81C38DA0007F5026316
:10A9CC00A3F614031B68D118D7F81C38DB00D7F892
:10A9DC0014281344D3E90023002001F0FFF90346A7
:10A9EC0087F81B3897F81B38002B04D001F084FA39
:10A9FC0097F81B380CE0D7F81C380133C7F81C3813
:10AA0C00D7F81C38FF2BD6D901F076FA97F81B38FB
:10AA1C00184607F62407BD4690BD000080B584B0EB
:10AA2C0000AF78607B68B3F829309BB207EE903AA0
:10AA3C00F8EE677A9FED0D7A67EE876A7B68B3F85C
:10AA4C0027309BB207EE903AB8EE677AC6EE877A5B
:10AA5C00C7ED037A7B682B3397ED030A184600F099
:10AA6C0017FD00BF1037BD4680BD00BF0000C842B7
:10AA7C0080B58CB000AFF860B9601346FB71FB7900
:10AA8C00142B28BF142387F82F30FB680F331822A0
:10AA9C000021184605F08CF9FB680F3397F82F202E
:10AAAC00B968184605F0B0F997F82F20FB68C3F881
:10AABC002320FB6823331B687B61FB6803F10F01C8
:10AACC0007F1140304331422184605F09DF907F11D
:10AADC001402182300210748FFF7FBFE0346002B46
:10AAEC0002D04FF0FF3300E0002318463037BD464C
:10AAFC0080BD00BF00F8030880B58AB000AF786055
:10AB0C0000237B6211E07B6ADB0003F1006303F539
:10AB1C007E33D3E90023796AC900283139442039BE
:10AB2C00C1E900237B6A01337B627B6A022BEADD7D
:10AB3C0007F108033B627B6823333A6A12681A6098
:10AB4C007B68D3F82330142B16D97B680F3305227E
:10AB5C000F49184605F058F97B68002242F00502AF
:10AB6C0083F82320002283F82420002283F8252058
:10AB7C00002283F8262008E07B6803F10F003B6A73
:10AB8C0004331422194605F03FF92837BD4680BD21
:10AB9C00D4FE00082DE9F04389B000AFF860B9602D
:10ABAC007A603B606B461E463B689BB20E33FB8360
:10ABBC00F98B0B46013BBB618BB200229846914648
:10ABCC004FF000024FF000034FEAC90343EA5873F9
:10ABDC004FEAC8028BB200221C4615464FF0000209
:10ABEC004FF00003EB0043EA5473E2000B460733CB
:10ABFC00DB08DB00ADEB030D6B4600337B61FB8B9D
:10AC0C001A460021786905F0D3F87B690822B968E7
:10AC1C00184605F0F9F87B6908333A681A607B69C5
:10AC2C000C333A687968184605F0EEF8FB8B023B5A
:10AC3C007A691344B7F840201A80FB681868FA8BBD
:10AC4C006423796903F074FDB54600BF2437BD4613
:10AC5C00BDE8F08380B590B002AF78603960002316
:10AC6C007B633B681B889BB2BB853B6802331B88AC
:10AC7C009BB27B853B6804331B889BB23B853B684E
:10AC8C0006331B889BB2FB843B6808331B683B6212
:10AC9C004FF6FC53FB854FF6FA333B837B681B89DD
:10ACAC009BB27B837B681B899AB27B8D9A4202D0C4
:10ACBC000123BB830AE0FB8C212B05D13B6A142BAF
:10ACCC0002D90323BB8301E00023BB83FB8C4AF234
:10ACDC002402934200F0B4804AF22402934200F31F
:10ACEC001D8140F60902934200F3188140F60402DC
:10ACFC0093420ADA432B00F08D80432B00F30E8134
:10AD0C00212B5FDC022B15DA08E1A3F60403052BDB
:10AD1C0000F2048101A252F823F000BFBDAE00087E
:10AD2C00E1AE000829AF000829AF0008F3AE000817
:10AD3C0017AF0008023B1F2B00F2F08001A252F863
:10AD4C0023F000BF5FAE000829AF000829AF000850
:10AD5C0029AF000829AF000829AF000829AF000867
:10AD6C0029AF000829AF000829AF000829AF000857
:10AD7C0029AF000829AF000829AF0008D7AD00089B
:10AD8C00E7AD000829AF000829AF000829AF00087B
:10AD9C0029AF000829AF000829AF000829AF000827
:10ADAC0029AF000829AF000829AF000829AF000817
:10ADBC0029AF000829AF000829AF0008F7AD00083B
:10ADCC002FAE0008422B1DD0A8E01023FB830223DA
:10ADDC003B637B6804337B63AAE01123FB83022370
:10ADEC003B637B6806337B63A2E02023FB8378689C
:10ADFC00FFF782FE7B68D3F823303B637B680F330D
:10AE0C007B6395E04223FB8301233B637B680A331E
:10AE1C007B638DE04323FB8300233B6300237B6335
:10AE2C0086E02123FB833B680C333A6AD2B2194685
:10AE3C007868FFF71DFE00233B6300237B6377E0FC
:10AE4C004AF22403FB8304233B637B680B337B6351
:10AE5C006EE04FF012024FF00003C7E9042307F134
:10AE6C000C0302220021184604F0A2FF3B680C33AD
:10AE7C001B889BB2BB810223FB8300233B633B7B80
:10AE8C00012B54D17B7B052B51D107F110020823E8
:10AE9C0018212F48FFF71DFD07F11801FB8D0093BA
:10AEAC003B6B00227868FFF775FE00F008FF3EE070
:10AEBC0000233B6340F60403FB837B6829333A6829
:10AECC000C32128892B21A807868FFF7A7FD002323
:10AEDC007B632DE040F60503FB8302233B637B6819
:10AEEC0029337B6324E000233B6340F60803FB8398
:10AEFC007B6827333A680C32128892B21A807868D1
:10AF0C00FFF78CFD00237B6312E040F60903FB8303
:10AF1C0002233B637B6827337B6309E0FB8CFB8359
:10AF2C000223BB8300233B6300237B6300E000BF51
:10AF3C0007F11801FB8D00933B6B7A6B7868FFF778
:10AF4C0029FEBB8BDBB218463837BD4680BD00BF2F
:10AF5C0000F8030880B483B000AF78600B467B80A8
:10AF6C007B681B68054A934202D1054B01221A707B
:10AF7C0000BF0C37BD465DF8047B704700380140BC
:10AF8C007A09002080B500AF00F076FC3D4B3E4ABC
:10AF9C001A603C4B01229A723A4B1222DA80394BDE
:10AFAC0040F2D2729A80374B4FF480521A81354B53
:10AFBC00002262F03F02DA72002242F027021A737A
:10AFCC00002242F009025A7300229A732D4B002280
:10AFDC0062F0170283F82720002242F0030283F864
:10AFEC002820284B002283F82920002283F82A20CD
:10AFFC002448FFF781FD40F60E020021234804F09F
:10B00C00D7FE00F0CCFC00F04FF800F047F900F050
:10B01C0015F900F09BF800F0B7F801224FF400513D
:10B02C001B4801F0CBFA05211A4800F03BFC00222A
:10B03C0019491A4800F084F940F60E0213491248D7
:10B04C0004F066FE9FED160A144800F073FA154BD7
:10B05C001B78012B12D10D490A48FFF7FBFD114B50
:10B06C0000221A7040F60E020021084804F0A0FEDF
:10B07C0040F60E020549044804F04AFE054800F06B
:10B08C0059FCE4E72C010020A40000206C010020F6
:10B09C0000080048480000205800002057010020FC
:10B0AC000000FA447A09002080B596B000AF07F191
:10B0BC00140344220021184604F07AFE3B46002279
:10B0CC001A605A609A60DA601A614FF4007001F0ED
:10B0DC00FDFA0346002B01D000F02CF909237B610B
:10B0EC004FF48033BB610123BB620223FB63032358
:10B0FC003B6401237B641423BB640723FB6402239E
:10B10C003B6502237B6507F11403184601F034FB01
:10B11C000346002B01D000F00DF90F233B600323F5
:10B12C007B600023BB600023FB6000233B613B463C
:10B13C000421184601F034FF0346002B01D000F027
:10B14C00F9F800BF5837BD4680BD000080B500AF90
:10B15C000B4B0C4A1A600A4B06225A60084B40F6FD
:10B16C00FF72DA60064B40F6FF729A60044801F0F9
:10B17C003DFA0346002B01D000F0DCF800BF80BD87
:10B18C00480000200030004080B58AB000AF07F1C5
:10B19C001C0300221A605A609A603B4600221A6017
:10B1AC005A609A60DA601A615A619A61224B4FF0C8
:10B1BC0080421A60204B01225A601F4B00229A6079
:10B1CC001D4B40F2E732DA601B4B00221A611A4B1E
:10B1DC0000229A61184802F011FC0346002B01D0A2
:10B1EC0000F0A8F80023FB6100237B6207F11C032D
:10B1FC001946114803F0E8F90346002B01D000F082
:10B20C0099F860233B6000237B600023BB60002324
:10B21C003B613B4600221946074802F0ADFD034650
:10B22C00002B01D000F086F8034800F057FA00BF5D
:10B23C002837BD4680BD00BF5800002080B500AF48
:10B24C00144B154A1A60134B4FF4E1325A60114BF0
:10B25C0000229A600F4B0022DA600E4B00221A611A
:10B26C000C4B0C225A610B4B00229A61094B0022A9
:10B27C00DA61084B00221A62064B00225A6205481A
:10B28C0003F008FA0346002B01D000F053F800BF7E
:10B29C0080BD00BFA40000200038014080B588B0FC
:10B2AC0000AF07F10C0300221A605A609A60DA6052
:10B2BC001A611E4BDB6C1D4A43F00403D3641B4B19
:10B2CC00DB6C03F00403BB60BB68184BDB6C174AE8
:10B2DC0043F08003D364154BDB6C03F080037B607D
:10B2EC007B68124BDB6C114A43F00103D3640F4BA8
:10B2FC00DB6C03F001033B603B6800224FF4005110
:10B30C000B4801F05BF94FF40053FB6001233B61E8
:10B31C0000237B610023BB6107F10C031946044831
:10B32C0000F0D2FF00BF2037BD4680BD00100240A8
:10B33C000008004880B400AF72B600BF00BFFDE744
:10B34C0080B485B000AFF860B9601346FB71FB6840
:10B35C00002B02D0BB68002B01D1012391E0FB68CC
:10B36C00BA681A61FA79FB681A60BB681B68DB6AF9
:10B37C0007EE903AF8EE677AFB6817EE902A9A601F
:10B38C00BB681B689A6AFB685A60FB79142B75D8EA
:10B39C0001A252F823F000BFF9B3000889B40008E9
:10B3AC0089B4000889B4000811B4000889B40008F5
:10B3BC0089B4000889B4000829B4000889B40008CD
:10B3CC0089B4000889B4000841B4000889B40008A5
:10B3DC0089B4000889B4000859B4000889B400087D
:10B3EC0089B4000889B4000871B40008BB681B68F4
:10B3FC005B6B07EE903AF8EE677AFB6817EE902AD3
:10B40C00DA603DE0BB681B689B6B07EE903AF8EE88
:10B41C00677AFB6817EE902ADA6031E0BB681B682C
:10B42C00DB6B07EE903AF8EE677AFB6817EE902A22
:10B43C00DA6025E0BB681B681B6C07EE903AF8EEEF
:10B44C00677AFB6817EE902ADA6019E0BB681B6814
:10B45C009B6D07EE903AF8EE677AFB6817EE902A30
:10B46C00DA600DE0BB681B68DB6D07EE903AF8EE16
:10B47C00677AFB6817EE902ADA6001E0012300E09E
:10B48C00002318461437BD465DF8047B704700BF97
:10B49C0090B583B000AF786087ED000A7B681A69BD
:10B4AC007B681B681946104602F0DEFBD7ED007A6C
:10B4BC009FED1E7AF4EEC77AF1EE10FA01DD1C4B0B
:10B4CC003B607B689B68D7ED007A07EE103A67EE1D
:10B4DC00277A9FED167AC7EE876A7B6816EE902A5C
:10B4EC00DA607B68DB681846FEF7CEFF02460B4637
:10B4FC0043EC102B04F096FC51EC100B7B681B6991
:10B50C001C68FFF719F8034663637B681B691B68AB
:10B51C0000225A627B681A697B681B6819461046C0
:10B52C0002F0C4FA00BF0C37BD4690BD0000C84203
:10B53C000000C84290B587B000AF786087ED000A74
:10B54C007B681B691B683B613B69B3F1804F07D07B
:10B55C003B693B4A934203D03B693A4A934208D138
:10B56C0001F0B6FE07EE900AF8EE677AC7ED057AA1
:10B57C001CE03B69344A934207D03B69334A9342FF
:10B58C0003D03B69324A934208D101F0B7FE07EE73
:10B59C00900AF8EE677AC7ED057A07E02D4B1B6829
:10B5AC0007EE903AF8EE677AC7ED057AD7ED007A98
:10B5BC00F5EE407AF1EE10FA04D17B684FF0000200
:10B5CC009A6019E07B685B6807EE903AB8EE677A90
:10B5DC00D7ED007A27EE277AD7ED007A37EE277A67
:10B5EC00D7ED056AC6EE877AB7EE007A77EEC77AA2
:10B5FC007B6817EE902A9A607B689B681846FEF76A
:10B60C0043FF02460B4643EC102B04F00BFC51ECB1
:10B61C00100B7B681C69FEF78FFF0346E3607B68A9
:10B62C001B691B6800225A627B681B69184602F072
:10B63C00E5F90346FB73FB7B18461C37BD4690BDF2
:10B64C000010004000140040002C0140004001405C
:10B65C00004401400000002080B483B000AF0F4BC9
:10B66C001B6E0E4A43F0010313660C4B1B6E03F06A
:10B67C0001037B607B68094B9B6D084A43F0805348
:10B68C009365064B9B6D03F080533B603B6800BF9A
:10B69C000C37BD465DF8047B704700BF00100240BC
:10B6AC0080B485B000AF78607B681B68B3F1804FC5
:10B6BC000BD1094B9B6D084A43F001039365064B74
:10B6CC009B6D03F00103FB60FB6800BF1437BD46A4
:10B6DC005DF8047B704700BF0010024080B588B055
:10B6EC0000AF786007F10C0300221A605A609A6070
:10B6FC00DA601A617B681B68B3F1804F1CD1104B68
:10B70C00DB6C0F4A43F00103D3640D4BDB6C03F08D
:10B71C000103BB60BB680123FB6002233B61002378
:10B72C007B610023BB610123FB6107F10C0319460C
:10B73C004FF0904000F0C8FD00BF2037BD4680BDE3
:10B74C000010024080B5A0B000AF786007F16C0328
:10B75C0000221A605A609A60DA601A6107F11003CD
:10B76C005C220021184604F023FB7B681B68234AEB
:10B77C0093423FD101233B6100233B6307F110034C
:10B78C00184601F031FE0346002B01D0FFF7D2FD25
:10B79C001B4B1B6E1A4A43F480431366184B1B6EEB
:10B7AC0003F48043FB60FB68154BDB6C144A43F0DD
:10B7BC000103D364124BDB6C03F00103BB60BB6869
:10B7CC004FF4C063FB6602233B6700237B670323B4
:10B7DC00BB670723FB6707F16C0319464FF09040DA
:10B7EC0000F072FD00220121252000F03EFA2520F8
:10B7FC0000F057FA00BF8037BD4680BD00380140CD
:10B80C000010024080B400AF00BFFDE780B400AF71
:10B81C0000BFFDE780B400AF00BFFDE780B400AF10
:10B82C0000BFFDE780B400AF00BFFDE780B400AF00
:10B83C0000BFBD465DF8047B704780B400AF00BF0D
:10B84C00BD465DF8047B704780B400AF00BFBD46B9
:10B85C005DF8047B704780B500AF00F0F5F800BFD1
:10B86C0080BD000080B500AF024802F0EBFF00BFC6
:10B87C0080BD00BFA400002080B400AF074B084A75
:10B88C009A60064BD3F88830044A43F47003C2F82C
:10B89C00883000BFBD465DF8047B704700ED00E0CA
:10B8AC0000A0000880B582B000AF78600B46FB703A
:10B8BC00FB78062B2CD801A252F823F0E5B800082F
:10B8CC00EDB80008F5B80008FDB8000805B9000887
:10B8DC000DB9000815B900087B6800225A6019E000
:10B8EC007B6801225A6015E07B6802225A6011E0E5
:10B8FC007B6803225A600DE07B6804225A6009E0E1
:10B90C007B6805225A6005E07B6806225A6001E0DC
:10B91C0001230BE07B6840F6FF729A607B6840F66F
:10B92C00FF72DA60786800F061FE0346184608374B
:10B93C00BD4680BD80B582B000AF7860786800F0FD
:10B94C00A6FE034618460837BD4680BDDFF834D046
:10B95C00FFF792FF0C480D490D4A002302E0D45822
:10B96C00C4500433C4188C42F9D30A4A0A4C00233D
:10B97C0001E013600432A242FBD304F021FAFFF77A
:10B98C0001FBFEE700000120000000202C0000203D
:10B99C0034FF00082C00002080090020FEE780B551
:10B9AC0082B000AF0023FB71032000F053F90F208D
:10B9BC0000F00EF80346002B02D00123FB7101E0CE
:10B9CC00FFF74AFEFB7918460837BD4680BD0000DC
:10B9DC0080B584B000AF78600023FB73174B1B78E5
:10B9EC00002B23D0164B1A68144B1B7819464FF4B6
:10B9FC007A73B3FBF1F3B2FBF3F3184600F063F97F
:10BA0C000346002B0FD17B680F2B09D800227968D5
:10BA1C004FF0FF3000F029F90A4A7B68136007E009
:10BA2C000123FB7304E00123FB7301E00123FB738F
:10BA3C00FB7B18461037BD4680BD00BF08000020B8
:10BA4C00000000200400002080B400AF064B1B78DF
:10BA5C001A46064B1B681344044A136000BFBD46CC
:10BA6C005DF8047B704700BF080000207C090020B3
:10BA7C0080B400AF034B1B681846BD465DF8047BD1
:10BA8C00704700BF7C09002080B485B000AF78609F
:10BA9C007B6803F00703FB600C4BDB68BB60BA6888
:10BAAC004FF6FF031340BB60FB681A02BB681343DD
:10BABC0043F0BF6343F40033BB60044ABB68D360FC
:10BACC0000BF1437BD465DF8047B704700ED00E005
:10BADC0080B400AF044BDB681B0A03F00703184665
:10BAEC00BD465DF8047B704700ED00E080B483B088
:10BAFC0000AF0346FB7197F90730002B0BDBFB798A
:10BB0C0003F01F02074997F907305B09012000FA7F
:10BB1C0002F241F8232000BF0C37BD465DF8047BD0
:10BB2C00704700BF00E100E080B483B000AF034673
:10BB3C003960FB7197F90730002B0ADB3B68DAB2EE
:10BB4C000C4997F907301201D2B20B4483F8002349
:10BB5C000AE03B68DAB20849FB7903F00F03043BB7
:10BB6C001201D2B20B441A7600BF0C37BD465DF8F9
:10BB7C00047B704700E100E000ED00E080B489B088
:10BB8C0000AFF860B9607A60FB6803F00703FB61F3
:10BB9C00FB69C3F10703042B28BF0423BB61FB69BA
:10BBAC000433062B02D9FB69033B00E000237B61C5
:10BBBC004FF0FF32BB6902FA03F3DA43BB681A4059
:10BBCC007B699A404FF0FF317B6901FA03F3D9434B
:10BBDC007B680B40134318462437BD465DF8047B45
:10BBEC007047000080B400AFBFF34F8F00BF064B0F
:10BBFC00DB6803F4E0620449044B1343CB60BFF3EE
:10BC0C004F8F00BF00BFFDE700ED00E00400FA0518
:10BC1C0080B582B000AF78607B68013BB3F1807F68
:10BC2C0001D301230FE00A4A7B68013B53600F21CB
:10BC3C004FF0FF30FFF778FF054B00229A60044B62
:10BC4C0007221A60002318460837BD4680BD00BF86
:10BC5C0010E000E080B582B000AF78607868FFF744
:10BC6C0013FF00BF0837BD4680BD80B586B000AF5E
:10BC7C000346B9607A60FB7300237B61FFF728FFF2
:10BC8C0078617A68B9687869FFF778FF024697F9A6
:10BC9C000F3011461846FFF747FF00BF1837BD4657
:10BCAC0080BD80B582B000AF0346FB7197F90730B9
:10BCBC001846FFF71BFF00BF0837BD4680BD80B597
:10BCCC0000AFFFF78FFF80B582B000AF7860786867
:10BCDC00FFF79EFF034618460837BD4680BD80B46B
:10BCEC0085B000AF78600023FB737B6893F8253038
:10BCFC00DBB2022B08D07B680422DA637B6800225B
:10BD0C0083F82420012322E07B681B681A687B6877
:10BD1C001B6822F00E021A607B681B681A687B682D
:10BD2C001B6822F001021A607B685B6C03F01C023A
:10BD3C007B681B6C012101FA02F25A607B680122BC
:10BD4C0083F825207B68002283F82420FB7B18468F
:10BD5C001437BD465DF8047B704780B584B000AFE6
:10BD6C0078600023FB737B6893F82530DBB2022BE1
:10BD7C0005D07B680422DA630123FB7329E07B681E
:10BD8C001B681A687B681B6822F00E021A607B68BD
:10BD9C001B681A687B681B6822F001021A607B68BA
:10BDAC005B6C03F01C027B681B6C012101FA02F234
:10BDBC005A607B68012283F825207B68002283F877
:10BDCC0024207B689B6B002B03D07B689B6B786873
:10BDDC009847FB7B18461037BD4680BD80B586B0B2
:10BDEC0000AFF860B960C7E9002300233B612F4B1B
:10BDFC001B78012B01D1022353E02C4B01221A702A
:10BE0C004CF2503000F088F80346FB75FB7D002B9C
:10BE1C0043D1264B00225A60254B1B6803F48063E8
:10BE2C00002B09D0224B1B68214A23F4806313603A
:10BE3C001E4B02221A7702E01C4B00221A77FB6879
:10BE4C00002B07D1D7E90023B86800F0BBF8012319
:10BE5C003B6110E0FB68012B02D0FB68022B0AD17E
:10BE6C003B681946B86800F0D3F8FB68022B02D186
:10BE7C004FF480233B614CF2503000F04DF80346F8
:10BE8C00FB753B69002B06D0094B5A693B69DB43B8
:10BE9C00074913404B6100F0CDF9044B00221A7096
:10BEAC00FB7D18461837BD4680BD00BF0C00002036
:10BEBC000020024080B483B000AF0023FB710B4B19
:10BECC005B69002B0BDA094B094A9A60074B094A4C
:10BEDC009A60064B5B69002B01DA0123FB71FB793D
:10BEEC0018460C37BD465DF8047B704700200240B5
:10BEFC0023016745AB89EFCD80B400AF054B5B697F
:10BF0C00044A43F00043536100231846BD465DF8D4
:10BF1C00047B70470020024080B584B000AF78608D
:10BF2C00FFF7A6FDF8600DE07B68B3F1FF3F09D089
:10BF3C00FFF79EFD0246FB68D31A7A689A4201D835
:10BF4C00032335E01C4B1B6903F48033002BEBD12E
:10BF5C00194B1A69194B1340BB60BB68002B1DD0E1
:10BF6C00174B5A68BB681343154A5360BB68B3F14F
:10BF7C00804F07D3104B9A69BB6803F040430E49BE
:10BF8C0013438B61BB6823F04043002B04D00A4A57
:10BF9C00BB6823F040431361012309E0064B1B6986
:10BFAC0003F00103002B02D0034B01221A61002382
:10BFBC0018461037BD4680BD00200240FAC302006F
:10BFCC000C00002080B485B000AFF860C7E90023F6
:10BFDC000E4B5B690D4A43F001035361FB683A68F1
:10BFEC001A60BFF36F8F00BFD7E900014FF000025A
:10BFFC004FF000030A000023F968043113460B606C
:10C00C0000BF1437BD465DF8047B7047002002402A
:10C01C0080B489B000AF786039604023FB777B68CF
:10C02C00BB613B687B61144B5B69134A43F480230F
:10C03C005361EFF31083FB60FB683B6172B600BF8A
:10C04C007B691A68BB691A60BB690433BB617B6985
:10C05C0004337B61FB7F013BFB77FB7F002BEFD134
:10C06C003B69BB60BB6883F3108800BF00BF2437FB
:10C07C00BD465DF8047B70470020024080B584B05B
:10C08C0000AF78603960484B1B78012B01D102233B
:10C09C0085E0454B01221A704CF25030FFF73CFF03
:10C0AC000346FB73FB7B002B75D13F4B00225A6080
:10C0BC003E4B1B6803F40073002B13D03B4B1B68E7
:10C0CC0003F48063002B09D0384B1B68374A23F4E8
:10C0DC0080631360344B03221A7716E0324B012233
:10C0EC001A7712E0314B1B6803F48063002B09D0E4
:10C0FC002E4B1B682D4A23F4806313602A4B0222BB
:10C10C001A7702E0284B00221A777B681B68012BF8
:10C11C0011D17B685B68184600F04AF84CF250303D
:10C12C00FFF7FAFE0346FB73204B5B691F4A23F0B3
:10C13C00040353612DE03B684FF0FF321A607B68BB
:10C14C009B68BB601DE07B685B681946B86800F0B3
:10C15C004DF84CF25030FFF7DFFE0346FB73134BE8
:10C16C005B69124A23F47E7323F002035361FB7B59
:10C17C00002B03D03B68BA681A600AE0BB68013335
:10C18C00BB607B689A687B68DB681344BA689A4228
:10C19C00D9D300F04FF8044B00221A70FB7B1846E1
:10C1AC001037BD4680BD00BF0C00002000200240AF
:10C1BC0080B483B000AF78607B6803F00103002B80
:10C1CC0005D0094B5B69084A43F004035361064BE5
:10C1DC005B69054A43F48033536100BF0C37BD469D
:10C1EC005DF8047B704700BF0020024080B483B030
:10C1FC0000AF786039600E4B5B6923F47E727B680C
:10C20C00DB0003F4FF630A4913434B61084B5B6982
:10C21C00074A43F002035361054B5B69044A43F43C
:10C22C008033536100BF0C37BD465DF8047B70470B
:10C23C000020024080B483B000AF214B1B7FFB7108
:10C24C00FB79012B02D0FB79032B17D11D4B1B68FB
:10C25C001C4A23F4007313601A4B1B68194A43F4ED
:10C26C0000631360174B1B68164A23F400631360BA
:10C27C00144B1B68134A43F400731360FB79022BB5
:10C28C0002D0FB79032B11D10E4B1B680D4A43F4E2
:10C29C00805313600B4B1B680A4A23F480531360C2
:10C2AC00084B1B68074A43F480631360044B00225D
:10C2BC001A7700BF0C37BD465DF8047B704700BF92
:10C2CC000C0000200020024080B487B000AF7860E2
:10C2DC00396000237B6154E13B681A6801217B695A
:10C2EC0001FA03F31340FB60FB68002B00F046815E
:10C2FC003B685B6803F00303012B05D03B685B686C
:10C30C0003F00303022B30D17B689B683B617B6994
:10C31C005B00032202FA03F3DB433A6913403B61EF
:10C32C003B68DA687B695B0002FA03F33A691343F2
:10C33C003B617B683A699A607B685B683B61012270
:10C34C007B6902FA03F3DB433A6913403B613B68B8
:10C35C005B681B0903F001027B6902FA03F33A697B
:10C36C0013433B617B683A695A603B685B6803F036
:10C37C000303032B17D07B68DB683B617B695B0095
:10C38C00032202FA03F3DB433A6913403B613B6837
:10C39C009A687B695B0002FA03F33A6913433B61C9
:10C3AC007B683A69DA603B685B6803F00303022B35
:10C3BC0023D17B69DA087B68083253F822303B6161
:10C3CC007B6903F007039B000F2202FA03F3DB43A4
:10C3DC003A6913403B613B681A697B6903F00703B8
:10C3EC009B0002FA03F33A6913433B617B69DA0859
:10C3FC007B680832396943F822107B681B683B6103
:10C40C007B695B00032202FA03F3DB433A691340B6
:10C41C003B613B685B6803F003027B695B0002FADB
:10C42C0003F33A6913433B617B683A691A603B68D2
:10C43C005B6803F44033002B00F0A080584B1B6E5C
:10C44C00574A43F001031366554B1B6E03F001036F
:10C45C00BB60BB68534A7B699B08023352F823309C
:10C46C003B617B6903F003039B000F2202FA03F389
:10C47C00DB433A6913403B617B68B3F1904F19D0B1
:10C48C007B68494A934213D07B68484A93420DD04B
:10C49C007B68474A934207D07B68464A934201D156
:10C4AC00042308E0072306E0032304E0022302E050
:10C4BC00012300E000237A6902F00302920093400A
:10C4CC003A6913433B6137497B699B0802333A69EC
:10C4DC0041F82320384B9B683B61FB68DB433A698E
:10C4EC0013403B613B685B6803F48013002B03D063
:10C4FC003A69FB6813433B612F4A3B6993602E4BAF
:10C50C00DB683B61FB68DB433A6913403B613B688A
:10C51C005B6803F40013002B03D03A69FB681343E8
:10C52C003B61254A3B69D360234B5B683B61FB68ED
:10C53C00DB433A6913403B613B685B6803F40033AF
:10C54C00002B03D03A69FB6813433B611A4A3B69E1
:10C55C005360194B1B683B61FB68DB433A69134022
:10C56C003B613B685B6803F48033002B03D03A6972
:10C57C00FB6813433B61104A3B6913607B690133D1
:10C58C007B613B681A687B6922FA03F3002B7FF40A
:10C59C00A3AE00BF00BF1C37BD465DF8047B7047DF
:10C5AC000010024000000140000400480008004850
:10C5BC00000C0048001000480004014080B483B017
:10C5CC0000AF78600B467B8013467B707B78002B2A
:10C5DC0003D07A887B689A6102E07A887B689A62D9
:10C5EC0000BF0C37BD465DF8047B704780B584B046
:10C5FC0000AF78607B68002B01D1012343E07B689E
:10C60C001B684CF6CC421A607B681B6845F255528D
:10C61C001A607B681B687A6852685A607B681B6872
:10C62C007A6892689A60FFF723FAF86011E0FFF7D6
:10C63C001FFA0246FB68D31A41F60102934208D94D
:10C64C007B681B68DB6803F00703002B01D0032316
:10C65C0019E07B681B68DB6803F00703002BE6D14D
:10C66C007B681B681A697B68DB689A4205D07B681B
:10C67C001B687A68D2681A6104E07B681B684AF60A
:10C68C00AA221A60002318461037BD4680BD80B41C
:10C69C0083B000AF78607B681B684AF6AA221A60E8
:10C6AC00002318460C37BD465DF8047B704700002C
:10C6BC0080B400AF044B1B6803F4C0631846BD463E
:10C6CC005DF8047B704700BF0070004080B485B0FB
:10C6DC0000AF78607B68B3F5007F30D1234B1B68CB
:10C6EC0003F4C063B3F5007F38D0204B1B6823F4F0
:10C6FC00C0631E4A43F4007313601D4B1B68322247
:10C70C0002FB03F31B4AA2FB03239B0C0133FB60CC
:10C71C0002E0FB68013BFB60144B5B6903F4806334
:10C72C00B3F5806F02D1FB68002BF2D10F4B5B6924
:10C73C0003F48063B3F5806F10D103230FE00B4B30
:10C74C001B6803F4C063B3F5806F07D0074B1B68FD
:10C75C0023F4C063054A43F4806313600023184636
:10C76C001437BD465DF8047B704700BF0070004075
:10C77C000000002083DE1B4380B588B000AF7860DA
:10C78C007B68002B02D1012300F002BC964B9B6806
:10C79C0003F00C03BB61944BDB6803F003037B6178
:10C7AC007B681B6803F01003002B00F0E480BB696E
:10C7BC00002B07D0BB690C2B40F08B807B69012BC5
:10C7CC0040F08780884B1B6803F00203002B05D0D8
:10C7DC007B689B69002B01D10123D9E37B681A6A22
:10C7EC00814B1B6803F00803002B04D07E4B1B68A5
:10C7FC0003F0F00305E07C4BD3F894301B0903F0F5
:10C80C00F003934223D27B681B6A184600F08CFD20
:10C81C000346002B01D00123BAE3734B1B68724A09
:10C82C0043F008031360704B1B6823F0F0027B6825
:10C83C001B6A6D4913430B606B4B5B6823F47F429F
:10C84C007B68DB691B02684913434B6025E0664B30
:10C85C001B68654A43F008031360634B1B6823F0A5
:10C86C00F0027B681B6A604913430B605E4B5B688C
:10C87C0023F47F427B68DB691B025B4913434B60EB
:10C88C00BB69002B09D17B681B6A184600F04CFD74
:10C89C000346002B01D001237AE300F081FC024611
:10C8AC00514B9B681B0903F00F035049CB5C03F001
:10C8BC001F0322FA03F34E4A13604E4B1B681846B3
:10C8CC00FFF786F80346FB73FB7B002B52D0FB7BF8
:10C8DC005EE37B689B69002B32D0434B1B68424A5A
:10C8EC0043F001031360FFF7C3F8386108E0FFF76A
:10C8FC00BFF802463B69D31A022B01D9032347E345
:10C90C00394B1B6803F00203002BF0D0364B1B682D
:10C91C00354A43F008031360334B1B6823F0F002D5
:10C92C007B681B6A304913430B602F4B5B6823F405
:10C93C007F427B68DB691B022B4913434B601AE077
:10C94C00294B1B68284A23F001031360FFF790F86A
:10C95C00386108E0FFF78CF802463B69D31A022BCA
:10C96C0001D9032314E3204B1B6803F00203002BB3
:10C97C00F0D100E000BF7B681B6803F00103002BC3
:10C98C0073D0BB69082B05D0BB690C2B0ED17B690E
:10C99C00032B0BD1144B1B6803F40033002B63D017
:10C9AC007B685B68002B5FD10123F1E27B685B68DD
:10C9BC00B3F5803F06D10C4B1B680B4A43F4803314
:10C9CC00136025E07B685B68B3F5A02F14D1064B90
:10C9DC001B68054A43F480231360034B1B68024A0F
:10C9EC0043F48033136013E000100240DCFE0008B7
:10C9FC000000002004000020A04B1B689F4A23F479
:10CA0C00803313609D4B1B689C4A23F48023136076
:10CA1C007B685B68002B13D0FFF72AF8386108E0BD
:10CA2C00FFF726F802463B69D31A642B01D903237E
:10CA3C00AEE2924B1B6803F40033002BF0D014E0F1
:10CA4C00FFF716F8386108E0FFF712F802463B6969
:10CA5C00D31A642B01D903239AE2884B1B6803F485
:10CA6C000033002BF0D100E000BF7B681B6803F0A3
:10CA7C000203002B60D0BB69042B05D0BB690C2BC7
:10CA8C0019D17B69022B16D17C4B1B6803F4806394
:10CA9C00002B05D07B68DB68002B01D1012377E2EA
:10CAAC00764B5B6823F0F8527B681B691B06734955
:10CABC0013434B6040E07B68DB68002B23D06F4B4B
:10CACC001B686E4A43F480731360FEF7D1FF386124
:10CADC0008E0FEF7CDFF02463B69D31A022B01D9C1
:10CAEC00032355E2654B1B6803F48063002BF0D0E5
:10CAFC00624B5B6823F0F8527B681B691B065F492D
:10CB0C0013434B6018E05D4B1B685C4A23F4807345
:10CB1C001360FEF7ADFF386108E0FEF7A9FF02468F
:10CB2C003B69D31A022B01D9032331E2534B1B6807
:10CB3C0003F48063002BF0D17B681B6803F00803BF
:10CB4C00002B3CD07B685B69002B1CD04B4BD3F883
:10CB5C0094304A4A43F00103C2F89430FEF788FF40
:10CB6C00386108E0FEF784FF02463B69D31A022BBA
:10CB7C0001D903230CE2414BD3F8943003F00203A8
:10CB8C00002BEFD01BE03D4BD3F894303B4A23F005
:10CB9C000103C2F89430FEF76BFF386108E0FEF732
:10CBAC0067FF02463B69D31A022B01D90323EFE13D
:10CBBC00324BD3F8943003F00203002BEFD17B6897
:10CBCC001B6803F00403002B00F0A6800023FB7706
:10CBDC002A4B9B6D03F08053002B0DD1274B9B6D83
:10CBEC00264A43F080539365244B9B6D03F080538E
:10CBFC00BB60BB680123FB77214B1B6803F480737C
:10CC0C00002B18D11E4B1B681D4A43F48073136014
:10CC1C00FEF72EFF386108E0FEF72AFF02463B695B
:10CC2C00D31A022B01D90323B2E1154B1B6803F471
:10CC3C008073002BF0D07B689B68012B08D10F4BC5
:10CC4C00D3F890300D4A43F00103C2F8903029E03C
:10CC5C007B689B68052B15D1084BD3F89030074A9D
:10CC6C0043F00403C2F89030044BD3F89030034ADD
:10CC7C0043F00103C2F8903014E000BF00100240F2
:10CC8C00007000409A4BD3F89030994A23F001037E
:10CC9C00C2F89030964BD3F89030954A23F00403A9
:10CCAC00C2F890307B689B68002B16D0FEF7E0FE34
:10CCBC0038610AE0FEF7DCFE02463B69D31A41F20A
:10CCCC008832934201D9032362E1894BD3F8903027
:10CCDC0003F00203002BEDD015E0FEF7C9FE38611E
:10CCEC000AE0FEF7C5FE02463B69D31A41F28832D0
:10CCFC00934201D903234BE17D4BD3F8903003F0E1
:10CD0C000203002BEDD1FB7F012B05D1784B9B6DE2
:10CD1C00774A23F0805393657B681B6803F02003EC
:10CD2C00002B3CD07B685B6A002B1CD0704BD3F87B
:10CD3C0098306F4A43F00103C2F89830FEF798FE22
:10CD4C00386108E0FEF794FE02463B69D31A022BC9
:10CD5C0001D903231CE1664BD3F8983003F002038E
:10CD6C00002BEFD01BE0624BD3F89830604A23F0D5
:10CD7C000103C2F89830FEF77BFE386108E0FEF73D
:10CD8C0077FE02463B69D31A022B01D90323FFE03D
:10CD9C00574BD3F8983003F00203002BEFD17B688C
:10CDAC009B6A002B00F0F3807B689B6A022B40F09F
:10CDBC00C9804F4BDB687B617B6903F003027B68A6
:10CDCC00DB6A9A422CD17B6903F070027B681B6B87
:10CDDC00013B1B019A4223D17B6903F4FE427B6821
:10CDEC005B6B1B029A421BD17B6903F078427B6818
:10CDFC009B6BDB069A4213D17B6903F4C0027B6800
:10CE0C00DB6B5B08013B5B059A4209D17B6903F044
:10CE1C00C0627B681B6C5B08013B5B069A426BD063
:10CE2C00BB690C2B62D0324B1B6803F08063002B68
:10CE3C0001D00123ACE02E4B1B682D4A23F08073EC
:10CE4C001360FEF715FE386108E0FEF711FE02468E
:10CE5C003B69D31A022B01D9032399E0244B1B689D
:10CE6C0003F00073002BF0D1214BDA68214B1340F7
:10CE7C007A68D16A7A68126B013A120111437A68A6
:10CE8C00526B120211437A68D26B5208013A520566
:10CE9C0011437A68126C5208013A520611437A68AF
:10CEAC00926BD2060A4312491343CB60104B1B689A
:10CEBC000F4A43F0807313600D4BDB680C4A43F050
:10CECC008073D360FEF7D4FD386108E0FEF7D0FD27
:10CEDC0002463B69D31A022B01D9032358E0044BB9
:10CEEC001B6803F00073002BF0D050E001234FE0DF
:10CEFC00001002408C809D01274B1B6803F00073CF
:10CF0C00002B44D1244B1B68234A43F080731360DD
:10CF1C00214BDB68204A43F08073D360FEF7A8FDF9
:10CF2C00386108E0FEF7A4FD02463B69D31A022BD8
:10CF3C0001D903232CE0184B1B6803F00073002B62
:10CF4C00F0D024E0BB690C2B1FD0134B1B68124A8A
:10CF5C0023F080731360FEF78BFD386108E0FEF759
:10CF6C0087FD02463B69D31A022B01D903230FE03C
:10CF7C00094B1B6803F00073002BF0D1064BDA68E9
:10CF8C000549064B1340CB6001E0012300E0002370
:10CF9C0018462037BD4680BD00100240FCFFEEFE57
:10CFAC0080B584B000AF786039607B68002B01D10C
:10CFBC000123E7E0754B1B6803F007033A689A42BC
:10CFCC0010D9724B1B6823F0070270493B6813435E
:10CFDC000B606E4B1B6803F007033A689A4201D052
:10CFEC000123CFE07B681B6803F00203002B10D0F9
:10CFFC007B689A68664B9B6803F0F0039A4208D9E9
:10D00C00634B9B6823F0F0027B689B686049134379
:10D01C008B607B681B6803F00103002B4CD07B6892
:10D02C005B68032B07D15A4B1B6803F00073002B72
:10D03C0021D10123A6E07B685B68022B07D1544BFE
:10D04C001B6803F40033002B15D101239AE07B6895
:10D05C005B68002B07D14E4B1B6803F00203002BBF
:10D06C0009D101238EE04A4B1B6803F48063002B2B
:10D07C0001D1012386E0464B9B6823F003027B68B9
:10D08C005B68434913438B60FEF7F2FCF8600AE0DF
:10D09C00FEF7EEFC0246FB68D31A41F2883293424B
:10D0AC0001D903236EE03A4B9B6803F00C027B68BA
:10D0BC005B689B009A42EBD17B681B6803F0020310
:10D0CC00002B10D07B689A68314B9B6803F0F003FF
:10D0DC009A4208D22E4B9B6823F0F0027B689B6827
:10D0EC002B4913438B60294B1B6803F007033A68E9
:10D0FC009A4210D2254B1B6823F0070223493B6848
:10D10C0013430B60214B1B6803F007033A689A42E8
:10D11C0001D0012336E07B681B6803F00403002B6D
:10D12C0008D01B4B9B6823F4E0627B68DB681849D2
:10D13C0013438B607B681B6803F00803002B09D03A
:10D14C00134B9B6823F460527B681B69DB0010490E
:10D15C0013438B6000F024F802460D4B9B681B09AF
:10D16C0003F00F030B49CB5C03F01F0322FA03F30C
:10D17C00094A1360094B1B681846FEF729FC034645
:10D18C00FB72FB7A18461037BD4680BD002002406A
:10D19C0000100240DCFE000800000020040000200B
:10D1AC0080B489B000AF0023FB610023BB613E4B10
:10D1BC009B6803F00C033B613B4BDB6803F0030300
:10D1CC00FB603B69002B05D03B690C2B21D1FB6824
:10D1DC00012B1ED1344B1B6803F00803002B07D125
:10D1EC00314BD3F894301B0A03F00F03FB6105E0BD
:10D1FC002D4B1B681B0903F00F03FB612B4AFB69CA
:10D20C0052F82330FB613B69002B0DD1FB69BB61EC
:10D21C000AE03B69042B02D1254BBB6104E03B695E
:10D22C00082B01D1234BBB613B690C2B34D11E4B1A
:10D23C00DB6803F00303BB60BB68022B03D0BB6845
:10D24C00032B03D005E01A4B7B6105E0194B7B6186
:10D25C0002E0FB697B6100BF134BDB681B0903F029
:10D26C00070301337B60104BDB681B0A03F07F0361
:10D27C007A6903FB02F27B68B2FBF3F37B610A4B26
:10D28C00DB685B0E03F0030301335B003B607A69E0
:10D29C003B68B2FBF3F3BB61BB6918462437BD4650
:10D2AC005DF8047B704700BF00100240F4FE0008DC
:10D2BC000024F40000127A0080B400AF034B1B680A
:10D2CC001846BD465DF8047B704700BF0000002087
:10D2DC0080B500AFFFF7F0FF0246064B9B681B0AB8
:10D2EC0003F007030449CB5C03F01F0322FA03F39A
:10D2FC00184680BD00100240ECFE000880B500AF5F
:10D30C00FFF7DAFF0246064B9B68DB0A03F00703C4
:10D31C000449CB5C03F01F0322FA03F3184680BDCB
:10D32C0000100240ECFE000880B586B000AF7860BB
:10D33C0000233B612A4B9B6D03F08053002B03D0E1
:10D34C00FFF7B6F9786114E0254B9B6D244A43F046
:10D35C0080539365224B9B6D03F08053FB60FB68FD
:10D36C00FFF7A6F978611E4B9B6D1D4A23F0805385
:10D37C0093657B69B3F5007F0BD17B68802B19D942
:10D38C007B68A02B02D902233B6113E001233B6194
:10D39C0010E07B68802B02D903233B610AE07B6899
:10D3AC00802B02D102233B6104E07B68702B01D1FE
:10D3BC0001233B610B4B1B6823F0070209493B69B6
:10D3CC0013430B60074B1B6803F007033A699A423F
:10D3DC0001D0012300E0002318461837BD4680BD5C
:10D3EC00001002400020024080B586B000AF78608B
:10D3FC000023FB740023BB747B681B6803F400637D
:10D40C00002B31D07B685B6CB3F5400F1AD0B3F5B1
:10D41C00400F14D8002B09D0B3F5000F0FD15D4B82
:10D42C00DB685C4A43F48033D3600CE07B680433E4
:10D43C000021184600F0F0F90346FB7403E00123C9
:10D44C00FB7400E000BFFB7C002B0BD1514BD3F8DD
:10D45C00883023F440027B685B6C4E491343C1F85F
:10D46C00883001E0FB7CBB747B681B6803F40033E1
:10D47C00002B00F09E8000237B74464B9B6D03F0C9
:10D48C008053002B01D1012300E00023002B0DD091
:10D49C00404B9B6D3F4A43F0805393653D4B9B6DD6
:10D4AC0003F08053BB60BB6801237B743A4B1B6851
:10D4BC00394A43F480731360FEF7DAFAF86009E036
:10D4CC00FEF7D6FA0246FB68D31A022B02D90323C5
:10D4DC00FB7405E0304B1B6803F48073002BEFD01A
:10D4EC00FB7C002B5AD12B4BD3F8903003F44073B8
:10D4FC007B617B69002B1ED07B689B6D7A699A429D
:10D50C0019D0244BD3F8903023F440737B61214B1A
:10D51C00D3F890301F4A43F48033C2F890301D4B3F
:10D52C00D3F890301B4A23F48033C2F89030194A58
:10D53C007B69C2F890307B6903F00103002B16D095
:10D54C00FEF796FAF8600BE0FEF792FA0246FB68DB
:10D55C00D31A41F28832934202D90323FB7406E0BA
:10D56C000C4BD3F8903003F00203002BECD0FB7C77
:10D57C00002B0BD1074BD3F8903023F440727B680F
:10D58C009B6D04491343C1F8903009E0FB7CBB74DC
:10D59C0006E000BF0010024000700040FB7CBB7432
:10D5AC007B7C012B05D19B4B9B6D9A4A23F08053BE
:10D5BC0093657B681B6803F00103002B0AD0954B25
:10D5CC00D3F8883023F003027B681B6A914913431C
:10D5DC00C1F888307B681B6803F00203002B0AD06B
:10D5EC008C4BD3F8883023F00C027B685B6A89493A
:10D5FC001343C1F888307B681B6803F00403002BCD
:10D60C000AD0844BD3F8883023F030027B689B6AB5
:10D61C0080491343C1F888307B681B6803F02003F2
:10D62C00002B0AD07B4BD3F8883023F440627B6804
:10D63C00DB6A78491343C1F888307B681B6803F4B4
:10D64C000073002B0AD0734BD3F8883023F440229C
:10D65C007B68DB6B6F491343C1F888307B681B68B0
:10D66C0003F48063002B0AD06A4BD3F8883023F480
:10D67C0040127B681B6C67491343C1F888307B6888
:10D68C001B6803F04003002B0AD0624BD3F88830A0
:10D69C0023F440527B681B6B5E491343C1F88830FE
:10D6AC007B681B6803F08003002B0AD0594BD3F81E
:10D6BC00883023F440427B685B6B56491343C1F8B6
:10D6CC0088307B681B6803F48073002B0AD0514BA5
:10D6DC00D3F8883023F440327B689B6B4D4913435D
:10D6EC00C1F888307B681B6803F40023002B28D01A
:10D6FC00484BD3F8883023F040627B689B6C4549DB
:10D70C001343C1F888307B689B6CB3F1006F06D172
:10D71C00404BDB683F4A43F48013D36011E07B68D5
:10D72C009B6CB3F1806F0CD17B68043301211846DC
:10D73C0000F072F80346FB74FB7C002B01D0FB7CE1
:10D74C00BB747B681B6803F48023002B28D0314BFF
:10D75C00D3F8883023F040627B68DB6C2D4913438F
:10D76C00C1F888307B68DB6CB3F1006F06D1294BB4
:10D77C00DB68284A43F48013D36011E07B68DB6CD0
:10D78C00B3F1806F0CD17B6804330121184600F093
:10D79C0043F80346FB74FB7C002B01D0FB7CBB7471
:10D7AC007B681B6803F48043002B1CD0194BD3F807
:10D7BC00883023F040527B681B6D16491343C1F827
:10D7CC0088307B681B6DB3F1805F0CD17B680433B0
:10D7DC000221184600F020F80346FB74FB7C002B5A
:10D7EC0001D0FB7CBB747B681B6803F40043002BEB
:10D7FC000AD0084BD3F8883023F080427B685B6DED
:10D80C0004491343C1F88830BB7C18461837BD4611
:10D81C0080BD00BF0010024080B584B000AF7860BE
:10D82C0039600023FB73744BDB6803F00303002B9C
:10D83C0018D0714BDB6803F003027B681B689A42BB
:10D84C000DD17B681B68002B09D06B4BDB681B0967
:10D85C0003F007035A1C7B685B689A4247D001238C
:10D86C00FB7344E07B681B68032B18D0032B25D873
:10D87C00012B02D0022B09D020E05F4B1B6803F078
:10D88C000203002B1DD10123FB731AE05A4B1B68BA
:10D89C0003F48063002B16D10123FB7313E0564B6A
:10D8AC001B6803F40033002B0FD1534B1B6803F49C
:10D8BC008023002B09D10123FB7306E00123FB73AA
:10D8CC0004E000BF02E000BF00E000BFFB7B002BC8
:10D8DC000DD1494BDB6823F073027B6819687B68B8
:10D8EC005B68013B1B010B4343491343CB60FB7B40
:10D8FC00002B7CD1404B1B683F4A23F080631360A4
:10D90C00FEF7B6F8B86009E0FEF7B2F80246BB685D
:10D91C00D31A022B02D90323FB7305E0364B1B6889
:10D92C0003F00063002BEFD1FB7B002B5FD13B6836
:10D93C00002B10D1304B1B6923F0784323F4FE43AA
:10D94C007A68926811027A68D268D2060A432A4928
:10D95C0013430B6127E03B68012B12D1264B1B694B
:10D96C0023F4C00323F4FE437A68926811027A68A8
:10D97C0012695208013A52050A431F4913430B61BD
:10D98C0011E01D4B1B6923F0C06323F4FE437A683E
:10D99C00926811027A6852695208013A52060A4397
:10D9AC00154913430B61144B1B68134A43F08063F6
:10D9BC001360FEF75DF8B86009E0FEF759F802460F
:10D9CC00BB68D31A022B02D90323FB7305E00A4B65
:10D9DC001B6803F00063002BEFD0FB7B002B06D100
:10D9EC00054B1A697B689B69034913430B61FB7BED
:10D9FC0018461037BD4680BD0010024080B582B07D
:10DA0C0000AF78607B68002B01D1012349E07B6873
:10DA1C0093F83D30DBB2002B06D17B68002283F8F3
:10DA2C003C207868FDF73CFE7B68022283F83D20A1
:10DA3C007B681A687B6804331946104600F0B0FA0C
:10DA4C007B68012283F848207B68012283F83E2002
:10DA5C007B68012283F83F207B68012283F84020F9
:10DA6C007B68012283F841207B68012283F84220E5
:10DA7C007B68012283F843207B68012283F84420D1
:10DA8C007B68012283F845207B68012283F84620BD
:10DA9C007B68012283F847207B68012283F83D20B4
:10DAAC00002318460837BD4680BD000080B584B001
:10DABC0000AF786039603B68002B09D17B6893F824
:10DACC003E30DBB2012B14BF01230023DBB23CE060
:10DADC003B68042B09D17B6893F83F30DBB2012BF8
:10DAEC0014BF01230023DBB22FE03B68082B09D1C4
:10DAFC007B6893F84030DBB2012B14BF0123002369
:10DB0C00DBB222E03B680C2B09D17B6893F84130E7
:10DB1C00DBB2012B14BF01230023DBB215E03B6801
:10DB2C00102B09D17B6893F84230DBB2012B14BF68
:10DB3C0001230023DBB208E07B6893F84330DBB2AF
:10DB4C00012B14BF01230023DBB2002B01D00123D6
:10DB5C007EE03B68002B04D17B68022283F83E20D8
:10DB6C0023E03B68042B04D17B68022283F83F201E
:10DB7C001BE03B68082B04D17B68022283F8402011
:10DB8C0013E03B680C2B04D17B68022283F8412004
:10DB9C000BE03B68102B04D17B68022283F84220F7
:10DBAC0003E07B68022283F843207B681B68012218
:10DBBC003968184600F0E2FC7B681B68264A9342E1
:10DBCC0009D07B681B68254A934204D07B681B688C
:10DBDC00234A934201D1012300E00023002B07D0FC
:10DBEC007B681B685A6C7B681B6842F400425A6461
:10DBFC007B681B68184A934209D07B681B68B3F199
:10DC0C00804F04D07B681B68144A934215D17B6803
:10DC1C001B689A68134B1340FB60FB68062B15D0EE
:10DC2C00FB68B3F5803F11D07B681B681A687B6872
:10DC3C001B6842F001021A6008E07B681B681A68D6
:10DC4C007B681B6842F001021A6000E000BF0023F1
:10DC5C0018461037BD4680BD002C014000400140E5
:10DC6C00004401400700010080B582B000AF78602D
:10DC7C0039607B681B6800223968184600F07EFC0E
:10DC8C007B681B68394A934209D07B681B68384A09
:10DC9C00934204D07B681B68364A934201D101231E
:10DCAC0000E00023002B17D07B681B681A6A41F236
:10DCBC0011131340002B0FD17B681B681A6A40F2BA
:10DCCC0044431340002B07D17B681B685A6C7B685C
:10DCDC001B6822F400425A647B681B681A6A41F282
:10DCEC0011131340002B0FD17B681B681A6A40F28A
:10DCFC0044431340002B07D17B681B681A687B6870
:10DD0C001B6822F001021A603B68002B04D17B686F
:10DD1C00012283F83E2023E03B68042B04D17B686E
:10DD2C00012283F83F201BE03B68082B04D17B6861
:10DD3C00012283F8402013E03B680C2B04D17B6854
:10DD4C00012283F841200BE03B68102B04D17B6847
:10DD5C00012283F8422003E07B68012283F84320F0
:10DD6C00002318460837BD4680BD00BF002C01407B
:10DD7C00004001400044014080B586B000AFF8601F
:10DD8C00B9607A600023FB75FB6893F83C30012B7B
:10DD9C0001D10223FFE0FB68012283F83C207B6861
:10DDAC00142B00F2F08001A252F823F00DDE0008D3
:10DDBC0093DF000893DF000893DF00084DDE0008B6
:10DDCC0093DF000893DF000893DF00088FDE000864
:10DDDC0093DF000893DF000893DF0008CFDE000814
:10DDEC0093DF000893DF000893DF000811DF0008C1
:10DDFC0093DF000893DF000893DF000851DF000871
:10DE0C00FB681B68B968184600F03AF9FB681B6898
:10DE1C009A69FB681B6842F008029A61FB681B68F0
:10DE2C009A69FB681B6822F004029A61FB681B6804
:10DE3C009969BB681A69FB681B680A439A61A5E07B
:10DE4C00FB681B68B968184600F096F9FB681B68FC
:10DE5C009A69FB681B6842F400629A61FB681B6854
:10DE6C009A69FB681B6822F480629A61FB681B68E4
:10DE7C009969BB681B691A02FB681B680A439A61A3
:10DE8C0084E0FB681B68B968184600F0EFF9FB6882
:10DE9C001B68DA69FB681B6842F00802DA61FB68F0
:10DEAC001B68DA69FB681B6822F00402DA61FB6804
:10DEBC001B68D969BB681A69FB681B680A43DA617D
:10DECC0064E0FB681B68B968184600F047FAFB6809
:10DEDC001B68DA69FB681B6842F40062DA61FB6854
:10DEEC001B68DA69FB681B6822F48062DA61FB68E4
:10DEFC001B68D969BB681B691A02FB681B680A435B
:10DF0C00DA6143E0FB681B68B968184600F084FAD4
:10DF1C00FB681B685A6DFB681B6842F008025A6567
:10DF2C00FB681B685A6DFB681B6822F004025A657B
:10DF3C00FB681B68596DBB681A69FB681B680A4350
:10DF4C005A6523E0FB681B68B968184600F0BCFAF8
:10DF5C00FB681B685A6DFB681B6842F400625A65CB
:10DF6C00FB681B685A6DFB681B6822F480625A655B
:10DF7C00FB681B68596DBB681B691A02FB681B6840
:10DF8C000A435A6502E00123FB7500BFFB680022BF
:10DF9C0083F83C20FB7D18461837BD4680BD00BF7A
:10DFAC0080B485B000AF786039607B681B68FB601B
:10DFBC007B68304A934203D07B68B3F1804F08D121
:10DFCC00FB6823F07003FB603B685B68FA681343E3
:10DFDC00FB607B68274A93420BD07B68B3F1804F80
:10DFEC0007D07B68244A934203D07B68234A934230
:10DFFC0008D1FB6823F44073FB603B68DB68FA686C
:10E00C001343FB60FB6823F080023B685B6913439E
:10E01C00FB607B68FA681A603B689A687B68DA6216
:10E02C003B681A687B689A627B68124A934207D0F5
:10E03C007B68114A934203D07B68104A934203D108
:10E04C003B681A697B681A637B6801225A617B689A
:10E05C001B6903F00103012B05D17B681B6923F0BD
:10E06C0001027B681A6100BF1437BD465DF8047B62
:10E07C00704700BF002C01400040014000440140AB
:10E08C0080B487B000AF786039607B681B6A7B61B5
:10E09C007B681B6A23F001027B681A627B685B68F1
:10E0AC003B617B689B69FB60FB6823F4803323F046
:10E0BC007003FB60FB6823F00303FB603B681B6889
:10E0CC00FA681343FB607B6923F002037B613B68B6
:10E0DC009B687A6913437B617B68244A934207D01F
:10E0EC007B68234A934203D07B68224A93420CD12B
:10E0FC007B6923F008037B613B68DB687A69134317
:10E10C007B617B6923F004037B617B68174A934234
:10E11C0007D07B68164A934203D07B68154A93421A
:10E12C0011D13B6923F480733B613B6923F4007389
:10E13C003B613B685B693A6913433B613B689B6994
:10E14C003A6913433B617B683A695A607B68FA68A9
:10E15C009A613B685A687B685A637B687A691A6271
:10E16C0000BF1C37BD465DF8047B7047002C014096
:10E17C00004001400044014080B487B000AF78609B
:10E18C0039607B681B6A7B617B681B6A23F0100219
:10E19C007B681A627B685B683B617B689B69FB6090
:10E1AC00FB6823F0807323F4E043FB60FB6823F4EB
:10E1BC004073FB603B681B681B02FA681343FB60EF
:10E1CC007B6923F020037B613B689B681B017A69A8
:10E1DC0013437B617B68224A93420DD17B6923F008
:10E1EC0080037B613B68DB681B017A6913437B61AD
:10E1FC007B6923F040037B617B68194A934207D00B
:10E20C007B68184A934203D07B68174A934213D118
:10E21C003B6923F480633B613B6923F400633B61FE
:10E22C003B685B699B003A6913433B613B689B69A4
:10E23C009B003A6913433B617B683A695A607B687F
:10E24C00FA689A613B685A687B689A637B687A695A
:10E25C001A6200BF1C37BD465DF8047B704700BFD7
:10E26C00002C0140004001400044014080B487B0C4
:10E27C0000AF786039607B681B6A7B617B681B6AC6
:10E28C0023F480727B681A627B685B683B617B68F5
:10E29C00DB69FB60FB6823F4803323F07003FB60C5
:10E2AC00FB6823F00303FB603B681B68FA681343AD
:10E2BC00FB607B6923F400737B613B689B681B02EA
:10E2CC007A6913437B617B68214A93420DD17B6948
:10E2DC0023F400637B613B68DB681B027A691343A0
:10E2EC007B617B6923F480637B617B68184A934272
:10E2FC0007D07B68174A934203D07B68164A934237
:10E30C0013D13B6923F480533B613B6923F40053E5
:10E31C003B613B685B691B013A6913433B613B689A
:10E32C009B691B013A6913433B617B683A695A60EC
:10E33C007B68FA68DA613B685A687B68DA637B68E9
:10E34C007A691A6200BF1C37BD465DF8047B7047C2
:10E35C00002C0140004001400044014080B487B0D3
:10E36C0000AF786039607B681B6A3B617B681B6A15
:10E37C0023F480527B681A627B685B687B617B68E4
:10E38C00DB69FB60FB6823F0807323F4E043FB60E4
:10E39C00FB6823F44073FB603B681B681B02FA6844
:10E3AC001343FB603B6923F400533B613B689B6860
:10E3BC001B033A6913433B617B68144A934207D0B1
:10E3CC007B68134A934203D07B68124A934209D16B
:10E3DC007B6923F480437B613B685B699B017A69B1
:10E3EC0013437B617B687A695A607B68FA68DA61EF
:10E3FC003B685A687B681A647B683A691A6200BF8A
:10E40C001C37BD465DF8047B704700BF002C0140F3
:10E41C00004001400044014080B487B000AF7860F8
:10E42C0039607B681B6A3B617B681B6A23F4803212
:10E43C007B681A627B685B687B617B685B6DFB60E9
:10E44C00FB6823F4803323F07003FB603B681B688C
:10E45C00FA681343FB603B6923F400333B613B6870
:10E46C009B681B043A6913433B617B68134A9342D4
:10E47C0007D07B68124A934203D07B68114A9342BF
:10E48C0009D17B6923F480337B613B685B691B0298
:10E49C007A6913437B617B687A695A607B68FA6896
:10E4AC005A653B685A687B689A657B683A691A6258
:10E4BC0000BF1C37BD465DF8047B7047002C014043
:10E4CC00004001400044014080B487B000AF786048
:10E4DC0039607B681B6A3B617B681B6A23F4801282
:10E4EC007B681A627B685B687B617B685B6DFB6039
:10E4FC00FB6823F0807323F4E043FB603B681B68EC
:10E50C001B02FA681343FB603B6923F400133B6165
:10E51C003B689B681B053A6913433B617B68144A53
:10E52C00934207D07B68134A934203D07B68124A0C
:10E53C00934209D17B6923F480237B613B685B693F
:10E54C009B027A6913437B617B687A695A607B68AA
:10E55C00FA685A653B685A687B68DA657B683A6981
:10E56C001A6200BF1C37BD465DF8047B704700BFC4
:10E57C00002C0140004001400044014080B487B0B1
:10E58C0000AFF860B9607A60BB6803F01F0301222A
:10E59C0002FA03F37B61FB681A6A7B69DB431A405E
:10E5AC00FB681A62FB681A6ABB6803F01F03796880
:10E5BC0001FA03F31A43FB681A6200BF1C37BD460D
:10E5CC005DF8047B7047000080B485B000AF7860C4
:10E5DC0039607B6893F83C30012B01D102234FE06A
:10E5EC007B68012283F83C207B68022283F83D2063
:10E5FC007B681B685B68FB607B681B689B68BB6007
:10E60C007B681B68214A934208D1FB6823F4700392
:10E61C00FB603B685B68FA681343FB60FB6823F0A4
:10E62C007003FB603B681B68FA681343FB607B68F4
:10E63C001B68FA685A607B681B68144A934209D0BD
:10E64C007B681B68B3F1804F04D07B681B68104A51
:10E65C0093420CD1BB6823F08003BB603B689B6882
:10E66C00BA681343BB607B681B68BA689A607B68A6
:10E67C00012283F83D207B68002283F83C20002394
:10E68C0018461437BD465DF8047B7047002C0140DA
:10E69C000040014080B582B000AF78607B68002BF1
:10E6AC0001D1012340E07B68DB6F002B06D17B6836
:10E6BC00002283F878207868FDF744F87B682422E0
:10E6CC00DA677B681B681A687B681B6822F001029A
:10E6DC001A607B685B6A002B02D0786800F030FE11
:10E6EC00786800F0D3FB0346012B01D101231BE01A
:10E6FC007B681B685A687B681B6822F490425A60DE
:10E70C007B681B689A687B681B6822F02A029A60F7
:10E71C007B681B681A687B681B6842F001021A60F0
:10E72C00786800F0AFFE034618460837BD4680BD3A
:10E73C0080B58AB002AFF860B9603B601346FB80CD
:10E74C00FB68DB6F202B77D1BB68002B02D0FB88DA
:10E75C00002B01D1012370E0FB680022C3F8842058
:10E76C00FB682122DA67FDF783F97861FB68FA8888
:10E77C00A3F85020FB68FA88A3F85220FB689B682A
:10E78C00B3F5805F08D1FB681B69002B04D1002313
:10E79C00FB61BB68BB6103E0BB68FB610023BB6131
:10E7AC002FE03B6800937B6900228021F86800F021
:10E7BC0011FF0346002B04D0FB682022DA670323E9
:10E7CC003BE0FB69002B0BD1BB691A88FB681B680B
:10E7DC00C2F3080292B21A85BB690233BB6107E02F
:10E7EC00FB691A78FB681B681A85FB690133FB61AE
:10E7FC00FB68B3F852309BB2013B9AB2FB68A3F8AA
:10E80C005220FB68B3F852309BB2002BC9D13B6845
:10E81C0000937B6900224021F86800F0DBFE034680
:10E82C00002B04D0FB682022DA67032305E0FB6889
:10E83C002022DA67002300E0022318462037BD4669
:10E84C0080BD000080B5BAB000AF78607B681B68F3
:10E85C00DB69C7F8E4307B681B681B68C7F8E030DD
:10E86C007B681B689B68C7F8DC30D7F8E42040F65F
:10E87C000F031340C7F8D830D7F8D830002B15D178
:10E88C00D7F8E43003F02003002B0FD0D7F8E0309A
:10E89C0003F02003002B09D07B689B6E002B00F04B
:10E8AC00CA827B689B6E78689847C4E2D7F8D830E8
:10E8BC00002B00F01781D7F8DC3003F00103002B9C
:10E8CC0006D1D7F8E020854B1340002B00F00A81CD
:10E8DC00D7F8E43003F00103002B11D0D7F8E03067
:10E8EC0003F48073002B0BD07B681B6801221A6227
:10E8FC007B68D3F8843043F001027B68C3F8842032
:10E90C00D7F8E43003F00203002B11D0D7F8DC3039
:10E91C0003F00103002B0BD07B681B6802221A62E8
:10E92C007B68D3F8843043F004027B68C3F88420FE
:10E93C00D7F8E43003F00403002B11D0D7F8DC3007
:10E94C0003F00103002B0BD07B681B6804221A62B6
:10E95C007B68D3F8843043F002027B68C3F88420D0
:10E96C00D7F8E43003F00803002B17D0D7F8E030C9
:10E97C0003F02003002B05D1D7F8DC3003F00103A2
:10E98C00002B0BD07B681B6808221A627B68D3F8BB
:10E99C00843043F008027B68C3F88420D7F8E43055
:10E9AC0003F40063002B12D0D7F8E03003F080633F
:10E9BC00002B0CD07B681B684FF400621A627B68DA
:10E9CC00D3F8843043F020027B68C3F884207B6842
:10E9DC00D3F88430002B00F03082D7F8E43003F009
:10E9EC002003002B0DD0D7F8E03003F02003002BD0
:10E9FC0007D07B689B6E002B03D07B689B6E78687E
:10EA0C0098477B68D3F88430C7F8D4307B681B6890
:10EA1C009B6803F04003402B05D0D7F8D43003F0AB
:10EA2C002803002B4FD0786800F008FF7B681B6828
:10EA3C009B6803F04003402B41D17B681B68083373
:10EA4C00C7F89C30D7F89C3053E8003FC7F8983093
:10EA5C00D7F8983023F04003C7F8D0307B681B6898
:10EA6C000833D7F8D020C7F8A820C7F8A430D7F8B7
:10EA7C00A410D7F8A82041E80023C7F8A030D7F895
:10EA8C00A030002BD9D17B685B6F002B13D07B6837
:10EA9C005B6F134A9A637B685B6F1846FDF75DF9F1
:10EAAC000346002B17D07B685B6F9B6B7A68526FA9
:10EABC00104698470FE0786800F0DEF90BE07868B4
:10EACC0000F0DAF907E0786800F0D6F97B680022EC
:10EADC00C3F88420B1E100BFAFE100BF2001000406
:10EAEC0011F900087B681B6E012B40F06A81D7F886
:10EAFC00E43003F01003002B00F06381D7F8E03012
:10EB0C0003F01003002B00F05C817B681B68102263
:10EB1C001A627B681B689B6803F04003402B40F033
:10EB2C00D4807B685B6F1B685B68A7F8BE30B7F856
:10EB3C00BE30002B00F0AD807B68B3F85830B7F8CE
:10EB4C00BE209A4280F0A5807B68B7F8BE20A3F85F
:10EB5C005A207B685B6F1B681B6803F02003002B3B
:10EB6C0040F086807B681B68C7F88830D7F88830FF
:10EB7C0053E8003FC7F88430D7F8843023F480730F
:10EB8C00C7F8B8307B681B681A46D7F8B830C7F896
:10EB9C009430C7F89020D7F89010D7F8942041E81B
:10EBAC000023C7F88C30D7F88C30002BDAD17B6877
:10EBBC001B6808337B677B6F53E8003F3B673B6FF9
:10EBCC0023F00103C7F8B4307B681B680833D7F80F
:10EBDC00B420C7F88020FB67F96FD7F8802041E894
:10EBEC000023BB67BB6F002BE1D17B681B6808332C
:10EBFC003B663B6E53E8003FFB65FB6D23F0400327
:10EC0C00C7F8B0307B681B680833D7F8B020FA66B9
:10EC1C00BB66B96EFA6E41E800237B667B6E002BF7
:10EC2C00E3D17B682022C3F880207B6800221A661F
:10EC3C007B681B68FB64FB6C53E8003FBB64BB6CDC
:10EC4C0023F01003C7F8AC307B681B681A46D7F862
:10EC5C00AC30BB657A65796DBA6D41E800233B65D4
:10EC6C003B6D002BE4D17B685B6F1846FDF737F8E2
:10EC7C007B6802225A667B68B3F858207B68B3F82D
:10EC8C005A309BB2D31A9BB219467868FCF762F9DA
:10EC9C00D5E07B68B3F85830B7F8BE209A4240F004
:10ECAC00CE807B685B6F1B681B6803F02003202BF6
:10ECBC0040F0C5807B6802225A667B68B3F85830F6
:10ECCC0019467868FCF746F9B9E07B68B3F8582028
:10ECDC007B68B3F85A309BB2D31AA7F8CE307B6856
:10ECEC00B3F85A309BB2002B00F0AB80B7F8CE30A3
:10ECFC00002B00F0A6807B681B68BB63BB6B53E8E2
:10ED0C00003F7B637B6B23F49073C7F8C8307B6840
:10ED1C001B681A46D7F8C8307B643A64396C7A6C35
:10ED2C0041E80023FB63FB6B002BE4D17B681B6881
:10ED3C0008337B627B6A53E8003F3B623B6A23F0FB
:10ED4C000103C7F8C4307B681B680833D7F8C420AC
:10ED5C003A63FB62F96A3A6B41E80023BB62BB6A17
:10ED6C00002BE3D17B682022C3F880207B68002233
:10ED7C001A667B6800229A667B681B683B613B695C
:10ED8C0053E8003FFB60FB6823F01003C7F8C0306A
:10ED9C007B681B681A46D7F8C030FB61BA61B96949
:10EDAC00FA6941E800237B617B69002BE4D17B6825
:10EDBC0002225A66B7F8CE3019467868FCF7CAF8C2
:10EDCC003FE0D7F8E43003F48013002B0ED0D7F8D3
:10EDDC00DC3003F48003002B08D07B681B684FF4F5
:10EDEC0080121A62786800F089FF2DE0D7F8E430C1
:10EDFC0003F08003002B0ED0D7F8E03003F0800333
:10EE0C00002B08D07B68DB6E002B1CD07B68DB6E84
:10EE1C007868984717E0D7F8E43003F04003002BEC
:10EE2C0012D0D7F8E03003F04003002B0CD07868F8
:10EE3C0000F07EFD08E000BF06E000BF04E000BF6C
:10EE4C0002E000BF00E000BFE837BD4680BD00BF58
:10EE5C0080B483B000AF786000BF0C37BD465DF85E
:10EE6C00047B704780B483B000AF786000BF0C3770
:10EE7C00BD465DF8047B704780B483B000AF78600A
:10EE8C0000BF0C37BD465DF8047B70472DE9B04FD1
:10EE9C008AB000AFF860002387F82230FB689A68CC
:10EEAC00FB681B691A43FB685B691A43FB68DB69E7
:10EEBC0013437B62FB681B681A689E4B1340FA680D
:10EECC001268796A0B431360FB681B685B6823F458
:10EEDC004051FB68DA68FB681B680A435A60FB68A0
:10EEEC009B697B62FB681B68934A934204D0FB6866
:10EEFC001B6A7A6A13437B62FB681B689B6823F46A
:10EF0C003061FB681B687A6A0A439A60FB681B686D
:10EF1C008A4A934226D18A4BD3F8883003F00303F4
:10EF2C00032B1BD801A252F823F000BF49EF0008B5
:10EF3C0059EF000851EF000861EF0008012387F832
:10EF4C002330ABE0022387F82330A7E0042387F8B3
:10EF5C002330A3E0082387F823309FE0102387F8A1
:10EF6C0023309BE0FB681B68764A934238D1744B84
:10EF7C00D3F8883003F00C030C2B2DD801A252F8D7
:10EF8C0023F000BFC5EF0008E5EF0008E5EF00082F
:10EF9C00E5EF0008D5EF0008E5EF0008E5EF000805
:10EFAC00E5EF0008CDEF0008E5EF0008E5EF0008FD
:10EFBC00E5EF0008DDEF0008002387F823306DE053
:10EFCC00022387F8233069E0042387F8233065E0B7
:10EFDC00082387F8233061E0102387F823305DE0A5
:10EFEC00FB681B68584A934225D1554BD3F888309F
:10EFFC0003F03003302B16D0302B18D8202B0AD02E
:10F00C00202B14D8002B02D0102B08D00FE000239B
:10F01C0087F8233042E0022387F823303EE00423B4
:10F02C0087F823303AE0082387F8233036E01023A2
:10F03C0087F8233032E0FB681B683F4A93422AD1A1
:10F04C003F4BD3F8883003F44063B3F5406F1AD0CC
:10F05C00B3F5406F1BD8B3F5006F0CD0B3F5006F50
:10F06C0015D8002B03D0B3F5806F08D00FE0002328
:10F07C0087F8233012E0022387F823300EE00423B4
:10F08C0087F823300AE0082387F8233006E01023A2
:10F09C0087F8233002E0102387F82330FB681B68C5
:10F0AC00254A934240F08A8097F82330082B24D8C5
:10F0BC0001A252F823F000BFE9F0000807F10008A4
:10F0CC00F1F0000807F10008F7F0000807F100085C
:10F0DC0007F1000807F10008FFF00008FEF7F8F848
:10F0EC00F86110E0194BFB610DE0FEF759F8F8617F
:10F0FC0009E04FF40043FB6105E00023FB610123B1
:10F10C0087F8223000BFFB69002B00F00981FB68F7
:10F11C005A6813465B001344FA699A4205D3FB689C
:10F12C005B681B03FA699A4212D9012387F82230D3
:10F13C00F6E000BFF369FFEF0080004000380140AB
:10F14C000010024000440040004800400024F4003D
:10F15C00FB6900221C4615464FF000024FF00003DD
:10F16C002B0243EA14632202F9684968490800201B
:10F17C008846814612EB080A43EB090BFB685B6877
:10F18C0000223B607A60D7E9002350465946FBF7D2
:10F19C00F3F902460B461346BB61BB69B3F5407FDE
:10F1AC0008D3BB69B3F5801F04D2FB681B68BA692E
:10F1BC00DA60B5E0012387F82230B1E0FB68DB6947
:10F1CC00B3F5004F5DD197F82330082B27D801A257
:10F1DC0052F823F005F200080DF2000815F20008B1
:10F1EC002BF200081BF200082BF200082BF200088F
:10F1FC002BF2000823F20008FEF76AF8F86114E01D
:10F20C00FEF77CF8F86110E04C4BFB610DE0FDF76C
:10F21C00C7FFF86109E04FF40043FB6105E00023F0
:10F22C00FB61012387F8223000BFFB69002B77D0EC
:10F23C00FB695A00FB685B685B081A44FB685B68F7
:10F24C00B2FBF3F3BB61BB690F2B16D9BB69B3F5EA
:10F25C00803F12D2BB699BB223F00F03FB82BB69C8
:10F26C005B089BB203F007039AB2FB8A1343FB8241
:10F27C00FB681B68FA8ADA6052E0012387F82230B7
:10F28C004EE097F82330082B27D801A252F823F030
:10F29C00C1F20008C9F20008D1F20008E7F2000838
:10F2AC00D7F20008E7F20008E7F20008E7F20008DE
:10F2BC00DFF20008FEF70CF8F86114E0FEF71EF818
:10F2CC00F86110E01D4BFB610DE0FDF769FFF86183
:10F2DC0009E04FF40043FB6105E00023FB610123CF
:10F2EC0087F8223000BFFB69002B19D0FB685B68E4
:10F2FC005A08FB691A44FB685B68B2FBF3F3BB6109
:10F30C00BB690F2B09D9BB69B3F5803F05D2BB692B
:10F31C009AB2FB681B68DA6002E0012387F822309E
:10F32C00FB6800229A66FB680022DA6697F82230A6
:10F33C0018462837BD46BDE8B08F00BF0024F40046
:10F34C0080B483B000AF78607B685B6A03F008031D
:10F35C00002B0AD07B681B685B6823F400417B6838
:10F36C005A6B7B681B680A435A607B685B6A03F0C4
:10F37C000103002B0AD07B681B685B6823F4003107
:10F38C007B689A6A7B681B680A435A607B685B6A75
:10F39C0003F00203002B0AD07B681B685B6823F424
:10F3AC0080317B68DA6A7B681B680A435A607B6829
:10F3BC005B6A03F00403002B0AD07B681B685B6854
:10F3CC0023F480217B681A6B7B681B680A435A60A4
:10F3DC007B685B6A03F01003002B0AD07B681B6808
:10F3EC009B6823F480517B689A6B7B681B680A438B
:10F3FC009A607B685B6A03F02003002B0AD07B6861
:10F40C001B689B6823F400517B68DA6B7B681B6874
:10F41C000A439A607B685B6A03F04003002B1AD0A6
:10F42C007B681B685B6823F480117B681A6C7B68B3
:10F43C001B680A435A607B681B6CB3F5801F0AD1AA
:10F44C007B681B685B6823F4C0017B685A6C7B6823
:10F45C001B680A435A607B685B6A03F08003002BCD
:10F46C000AD07B681B685B6823F400217B689A6C6C
:10F47C007B681B680A435A6000BF0C37BD465DF8B9
:10F48C00047B704780B598B002AF78607B6800222F
:10F49C00C3F88420FCF7ECFA78657B681B681B6862
:10F4AC0003F00803082B2ED16FF07E4300937B6D85
:10F4BC0000224FF40011786800F08CF80346002B02
:10F4CC0021D07B681B68BB63BB6B53E8003F7B633D
:10F4DC007B6B23F080033B657B681B681A463B6D96
:10F4EC007B643A64396C7A6C41E80023FB63FB6BF8
:10F4FC00002BE6D17B682022DA677B68002283F838
:10F50C007820032362E07B681B681B6803F004030C
:10F51C00042B49D16FF07E4300937B6D00224FF496
:10F52C008001786800F056F80346002B3CD07B68CD
:10F53C001B687B627B6A53E8003F3B623B6A23F4A7
:10F54C009073FB647B681B681A46FB6C3B63FA6226
:10F55C00F96A3A6B41E80023BB62BB6A002BE6D127
:10F56C007B681B6808333B613B6953E8003FFB60D9
:10F57C00FB6823F00103BB647B681B680833BA6C1F
:10F58C00FA61BB61B969FA6941E800237B617B6967
:10F59C00002BE5D17B682022C3F880207B680022F9
:10F5AC0083F87820032311E07B682022DA677B68DC
:10F5BC002022C3F880207B6800221A667B68002218
:10F5CC005A667B68002283F8782000231846583747
:10F5DC00BD4680BD80B584B000AFF860B9603B60BB
:10F5EC001346FB714FE0BB69B3F1FF3F4BD0FCF707
:10F5FC003FFA02463B68D31ABA699A4202D3BB69F6
:10F60C00002B01D103234EE0FB681B681B6803F041
:10F61C000403002B37D0BB68802B34D0BB68402B45
:10F62C0031D0FB681B68DB6903F00803082B10D191
:10F63C00FB681B6808221A62F86800F0FFF8FB6888
:10F64C000822C3F88420FB68002283F87820012369
:10F65C0029E0FB681B68DB6903F40063B3F5006FFA
:10F66C0011D1FB681B684FF400621A62F86800F055
:10F67C00E5F8FB682022C3F88420FB68002283F89D
:10F68C00782003230FE0FB681B68DA69BB68134022
:10F69C00BA689A420CBF01230023DBB21A46FB79ED
:10F6AC009A42A0D0002318461037BD4680BD0000FA
:10F6BC0080B497B000AFF860B9601346FB80FB686C
:10F6CC00BA685A65FB68FA88A3F85820FB68FA8870
:10F6DC00A3F85A20FB6800229A66FB689B68B3F576
:10F6EC00805F0ED1FB681B69002B05D1FB6840F2D3
:10F6FC00FF12A3F85C202DE0FB68FF22A3F85C202E
:10F70C0028E0FB689B68002B0DD1FB681B69002B64
:10F71C0004D1FB68FF22A3F85C201BE0FB687F226E
:10F72C00A3F85C2016E0FB689B68B3F1805F0DD1F9
:10F73C00FB681B69002B04D1FB687F22A3F85C20BB
:10F74C0008E0FB683F22A3F85C2003E0FB68002282
:10F75C00A3F85C20FB680022C3F88420FB682222FB
:10F76C00C3F88020FB681B680833FB63FB6B53E812
:10F77C00003FBB63BB6B43F001037B65FB681B68FD
:10F78C0008337A6DBA647B64796CBA6C41E80023F7
:10F79C003B643B6C002BE5D1FB689B68B3F5805F49
:10F7AC0007D1FB681B69002B03D1FB68214A9A66C1
:10F7BC0002E0FB68204A9A66FB681B69002B19D093
:10F7CC00FB681B68BB62BB6A53E8003F7B627B6AC9
:10F7DC0043F49073FB64FB681B681A46FB6C7B63F9
:10F7EC003A63396B7A6B41E80023FB62FB6A002BAE
:10F7FC00E6D118E0FB681B687B617B6953E8003F2E
:10F80C003B613B6943F020033B65FB681B681A4670
:10F81C003B6D3B62FA61F9693A6A41E80023BB61CE
:10F82C00BB69002BE6D1002318465C37BD465DF85A
:10F83C00047B70474DFB000891F9000880B495B02B
:10F84C0000AF78607B681B687B637B6B53E8003F81
:10F85C003B633B6B23F49073FB647B681B681A4619
:10F86C00FB6C3B64FA63F96B3A6C41E80023BB63B5
:10F87C00BB6B002BE6D17B681B6808333B623B6A91
:10F88C0053E8003FFB61FB6923F00103BB647B6819
:10F89C001B680833BA6CFA62BB62B96AFA6A41E84F
:10F8AC0000237B627B6A002BE5D17B681B6E012BEE
:10F8BC0018D17B681B68FB60FB6853E8003FBB609A
:10F8CC00BB6823F010037B647B681B681A467B6C57
:10F8DC00BB617A617969BA6941E800233B613B6994
:10F8EC00002BE6D17B682022C3F880207B680022A5
:10F8FC001A667B6800229A6600BF5437BD465DF8D5
:10F90C00047B704780B584B000AF78607B689B6ADD
:10F91C00FB60FB680022A3F85A20FB680022A3F8C6
:10F92C005220F868FFF7A8FA00BF1037BD4680BD1B
:10F93C0080B588B000AF78607B681B68FB60FB68A3
:10F94C0053E8003FBB60BB6823F04003FB617B685E
:10F95C001B681A46FB69BB617A617969BA6941E82F
:10F96C0000233B613B69002BE6D17B682022DA67E0
:10F97C007B680022DA667868FFF76AFA00BF2037E6
:10F98C00BD4680BD80B59CB000AF78607B68B3F895
:10F99C005C30A7F86E307B68D3F88030222B40F0B7
:10F9AC00BE807B681B689B8CA7F86C30B7F86C30FA
:10F9BC00D9B2B7F86E30DAB27B685B6D0A40D2B25E
:10F9CC001A707B685B6D5A1C7B685A657B68B3F850
:10F9DC005A309BB2013B9AB27B68A3F85A207B68E1
:10F9EC00B3F85A309BB2002B40F0A3807B681B68A5
:10F9FC00FB64FB6C53E8003FBB64BB6C23F490735B
:10FA0C00BB667B681B681A46BB6EBB657A65796DF5
:10FA1C00BA6D41E800233B653B6D002BE6D17B685A
:10FA2C001B680833BB63BB6B53E8003F7B637B6B8A
:10FA3C0023F001037B667B681B6808337A6E7A645B
:10FA4C003B64396C7A6C41E80023FB63FB6B002B45
:10FA5C00E5D17B682022C3F880207B6800229A665F
:10FA6C007B6800225A667B681B68344A93421FD01D
:10FA7C007B681B685B6803F40003002B18D07B6861
:10FA8C001B687B627B6A53E8003F3B623B6A23F056
:10FA9C0080633B667B681B681A463B6E3B63FA626D
:10FAAC00F96A3A6B41E80023BB62BB6A002BE6D1D2
:10FABC007B681B6E012B2ED17B6800221A667B683B
:10FACC001B683B613B6953E8003FFB60FB6823F01C
