:020000040800F2
:1000000000000120D9130008CD0F0008D50F00080B
:10001000DD0F0008E50F0008ED0F000800000000EC
:10002000000000000000000000000000F50F0008C4
:100030000310000800000000111000081F10000845
:10004000291400082914000829140008291400089C
:10005000291400082914000829140008291400088C
:10006000291400082914000829140008291400087C
:10007000291400082914000829140008291400086C
:10008000291400082914000829140008291400085C
:10009000291400082914000829140008291400084C
:1000A000291400082914000829140008291400083C
:1000B00029140008000000000000000029140008B6
:1000C000291400082914000829140008291400081C
:1000D000291400082D10000829140008291400080C
:1000E0002914000829140008000000000000000086
:1000F0000000000000000000000000000000000000
:100100000000000029140008000000002914000865
:100110000000000000000000291400082914000855
:1001200029140008291400082914000829140008BB
:10013000291400080000000000000000000000007A
:1001400029140008291400082914000800000000E0
:10015000291400082914000829140008291400088B
:1001600029140008291400082914000800000000C0
:1001700029140008291400080000000000000000F5
:0C018000291400082914000829140008A4
:10018C0010B5054C237833B9044B13B10448AFF3C5
:10019C0000800123237010BD7C00002000000000B3
:1001AC00FC4F000808B5034B1BB103490348AFF3E0
:1001BC00008008BD0000000080000020FC4F0008FB
:1001CC0053B94AB9002908BF00281CBF4FF0FF31B2
:1001DC004FF0FF3000F06AB9ADF1080C6DE904CEB8
:1001EC0000F006F8DDF804E0DDE9022304B0704706
:1001FC002DE9F047089D0C46002B4ED194468C45BA
:10020C008646B2FA82F262D94AB1C2F12003914019
:10021C0020FA03F30CFA02FC194300FA02FE4FEA2F
:10022C001C471FFA8CF6B1FBF7F44FEA1E4307FB91
:10023C00141143EA014304FB06F199420AD91CEB61
:10024C00030304F1FF3080F01281994240F20F81D8
:10025C00023C6344591A1FFA8EF3B1FBF7F007FB0B
:10026C00101143EA014300FB06F69E420AD91CEB2F
:10027C00030300F1FF3180F0FC809E4240F2F980D4
:10028C00634402389B1B40EA044000211DB1D3405B
:10029C000022C5E90032BDE8F0878B4205D90DB1CB
:1002AC00C5E9000100210846F5E7B3FA83F10029FE
:1002BC0046D1A34202D39042C0F0F080861A64EB80
:1002CC0003030120002DE6D0C5E90063E3E7002A13
:1002DC0040F09080A1EB0C044FEA1C481FFA8CF7FD
:1002EC000121B4FBF8F64FEA1E4308FB164443EA1F
:1002FC00044307FB06F0984208D91CEB030306F1F4
:10030C00FF3402D2984200F2CD8026461C1A1FFA06
:10031C008EF3B4FBF8F008FB104443EA044300FBF3
:10032C0007F79F4208D91CEB030300F1FF3402D2FC
:10033C009F4200F2B0802046DB1B40EA0640A5E756
:10034C00C1F120068B4022FA06F71F4320FA06FC67
:10035C0004FA01F343EA0C03F44000FA01F8380CF8
:10036C004FEA1349B4FBF0FE1FFA87FC00FB1E4456
:10037C0049EA04440EFB0CF9A14502FA01F20AD930
:10038C003C190EF1FF3A80F08480A14540F2818047
:10039C00AEF1020E3C44A4EB09041FFA83F9B4FB42
:1003AC00F0F300FB134449EA044403FB0CFCA445A2
:1003BC0007D93C1903F1FF3067D2A44565D9023B3C
:1003CC003C4443EA0E40A0FB0293A4EB0C049C4279
:1003DC00CE469C4651D34ED055B1B8EB0E0364EBD0
:1003EC000C0404FA06F6CB401E43CC40C5E900646D
:1003FC00002150E7C2F1200320FA03F10CFA02FCB1
:10040C0024FA03F394400C434FEA1C4800FA02FE12
:10041C001FFA8CF7B3FBF8F008FB1031230C43EAFE
:10042C00014300FB07F1994208D91CEB030300F1CF
:10043C00FF362CD299422AD9023863445B1AA4B2F3
:10044C00B3FBF8F108FB113344EA034401FB07F357
:10045C00A34208D91CEB040401F1FF3613D2A342CA
:10046C0011D902396444E41A41EA004139E70446DF
:10047C00F0E6084606E7C845AED2B9EB020E63EBD0
:10048C00070C0138A8E73146EDE7034699E73046FB
:10049C00D4E7D6467FE7634402384DE70646234649
:1004AC0008460FE7023E634430E700BF704700BFC9
:1004BC0080B483B000AF78607B6803F58033DB02D7
:1004CC0018460C37BD465DF8047B704780B483B08A
:1004DC0000AF78607B6803F17843DB0A18460C3771
:1004EC00BD465DF8047B704780B588B000AF78607E
:1004FC0039600123FB7701233B617B687B613B689F
:10050C00BB610023FB6001F051FA07F1080207F10F
:10051C000C031146184601F02DFB0346FB7701F046
:10052C0067FAFB7F18462037BD4680BD80B5ADF617
:10053C00380D00AF07F63803A3F62C03186007F646
:10054C003803A3F50363196007F63803A3F63403E5
:10055C001A60002387F8333807F11403C7F81C38E6
:10056C0007F63803A3F62C031868FFF7AFFFC7F89C
:10057C001808D7F81808FFF79BFFC7F83408D7F806
:10058C001808FFF795FF024607F63803A3F62C036D
:10059C001B689A1A07F63803A3F634031B68134436
:1005AC00DB0A0133C7F814380023C7F82C38CFE026
:1005BC0007F114034FF400620021184604F07CFC90
:1005CC000023C7F8283824E007F63803A3F62C03D9
:1005DC001868FFF77BFF03461846FFF769FF0246D2
:1005EC00D7F82838DB001946D7F82C38DB020B4437
:1005FC0013441846D7F82838DB00D7F81C28D11834
:10060C00D0E90023C1E90023D7F828380133C7F813
:10061C002838D7F82838FF2BD6D90023C7F8243828
:10062C003AE007F63803A3F62C03D7F834281B68F6
:10063C009A4205D2D7F834380133C7F8343826E05B
:10064C0007F63803A3F634031B68002B2AD007F6F1
:10065C003803A3F503631B6807F63802A2F503629F
:10066C00591C1160197807F63803A3F62402D7F841
:10067C00243813440A461A7007F63803A3F63403D9
:10068C0007F63802A2F634021268013A1A60D7F85B
:10069C0024380133C7F82438D7F82438B3F5006F61
:1006AC00BFD300E000BFD7F82C28D7F81838134474
:1006BC0001211846FFF718FF034687F8333897F8DF
:1006CC003338002B02D097F833384AE001F06EF93A
:1006DC000023C7F8203830E007F63803A3F62C03C4
:1006EC001868FFF7F3FE03461846FFF7E1FE0246D3
:1006FC00D7F82038DB001946D7F82C38DB020B442E
:10070C00D118D7F82038DB00D7F81C281344D3E9CC
:10071C000023002001F0DEF8034687F8333897F801
:10072C003338002B04D001F063F997F8333818E014
:10073C00D7F820380133C7F82038D7F82038FF2BEA
:10074C00CAD901F055F9D7F82C380133C7F82C3831
:10075C00D7F82C38D7F814289A423FF629AF97F8D7
:10076C003338184607F63807BD4680BD80B487B0CD
:10077C0000AFF860B9607A60BB683B6100237B61B5
:10078C0010E07B69DB001A46FB68134418467B6952
:10079C00DB003A69D118D0E90023C1E900237B6959
:1007AC0001337B617B68DA087B699A42E9D800BF28
:1007BC0000BF1C37BD465DF8047B704780B586B022
:1007CC0000AFF860B9607A6000237B617A68B96821
:1007DC00F868FFF7ABFE0346FB74FB7C002B01D0E3
:1007EC00FB7C20E00121786804F084FA03467B61ED
:1007FC007B69002B01D1012315E07A687969F868CF
:10080C00FFF7B4FF7A687969B86804F045FB0346D2
:10081C00002B04D0786904F089FA012303E078698D
:10082C0004F084FA002318461837BD4680BD2DE924
:10083C00F04389B000AFF860B9607A603B606B46FA
:10084C001E463B689BB20E33FB83F98B0B46013B78
:10085C00BB618BB20022984691464FF000024FF0DC
:10086C0000034FEAC90343EA58734FEAC8028BB23C
:10087C0000221C4615464FF000024FF00003EB001F
:10088C0043EA5473E2000B460733DB08DB00ADEBA5
:10089C00030D6B4600337B61FB8B1A460021786994
:1008AC0004F00AFB7B690822B968184604F048FB7F
:1008BC007B6908333A681A607B690C333A6879684B
:1008CC00184604F03DFBFB8B023B7A691344B7F8E6
:1008DC0040201A80FB68FA8B7969184600F0BEFA42
:1008EC00B54600BF2437BD46BDE8F08380B590B057
:1008FC0002AF786039600023FB7700237B633B6891
:10090C001B889BB2BB853B6802331B889BB27B85E3
:10091C003B6804331B889BB23B853B6806331B88C2
:10092C009BB2FB843B6808331B683B624FF6FC535D
:10093C00FB854FF6FA33BB827B68B3F816389BB253
:10094C00FB827B68B3F816389AB27B8D9A4202D040
:10095C0001233B8301E000233B83FB8C032B3FD122
:10096C0003237B8301233B633B6A002B1BD14FF09A
:10097C0000024FF00003C7E9022307F10803082225
:10098C0019462348FFF7D2FD0123FB7707F11F021D
:10099C0007F11401FB8D00933B6B7868FFF747FF61
:1009AC0000F009FF18E07B68D3F818083B680C339B
:1009BC003A6A1946FFF702FF0346002B02D00023C8
:1009CC00FB7709E07B68D3F818283B6A1A447B68EC
:1009DC00C3F818280123FB7707F11F037B6308E09A
:1009EC00FB8C7B8302233B8300233B6300237B63D1
:1009FC0000BF07F11401FB8D00933B6B7A6B786899
:100A0C00FFF715FF3B8BDBB218463837BD4680BD70
:100A1C0018F80308F0B5ADF6240D40F608076F443E
:100A2C00F860B9607A60BB687B617B691A681646AE
:100A3C005A6815469A68144668460C3340F602020A
:100A4C00194604F07DFA31462A462346044800F044
:100A5C0053FBF86800F016FA00BF1C37BD46F0BD1A
:100A6C004C09002080B5ADF5016D00AF052127487C
:100A7C0000F020FC264B274A1A60254B264AC3F867
:100A8C001228234B4FF48052A3F81628204B234AEC
:100A9C00C3F8182800F0C3FC00F046F800F0E6F8A4
:100AAC0000F0B4F800F094F8194800F09DF9062114
:100ABC001B4800F037FC00224FF40051194801F09C
:100ACC00F9FA00F013F902460B46A2F112010B439E
:100ADC0003D10F4800F0D6F901E000F019F90B48EA
:100AEC0000F0F0FA0346002B0CD107F50163A3F5D7
:100AFC0001630649184600F04DFB3B461946044875
:100B0C00FFF7F4FE064800F055FCE8E74C0900201E
:100B1C0030010020A8000020210A000800A00008D5
:100B2C00980000200008004880B596B000AF07F18F
:100B3C00140344220021184604F0BEF93B4600225F
:100B4C001A605A609A60DA601A614FF4007001F012
:100B5C0037FB0346002B01D000F0FEF80A237B6123
:100B6C004FF480733B6210237B620123BB62022330
:100B7C00FB6302233B6401237B640A23BB640723CE
:100B8C00FB6402233B6502237B6507F114031846C3
:100B9C0001F004FC0346002B01D000F0DDF80F231C
:100BAC003B6003237B600023BB600023FB600023BE
:100BBC003B613B460421184602F004F80346002B27
:100BCC0001D000F0C9F800BF5837BD4680BD000009
:100BDC0080B500AF0B4B0C4A1A600A4B00225A60CE
:100BEC00084B40F6FF72DA60064B40F6FF729A60D3
:100BFC00044801F077FA0346002B01D000F0ACF862
:100C0C0000BF80BD980000200030004080B500AFD0
:100C1C00144B154A1A60134B4FF4E1325A60114BC6
:100C2C0000229A600F4B0022DA600E4B00221A61F0
:100C3C000C4B0C225A610B4B00229A61094B00227F
:100C4C00DA61084B00221A62064B00225A620548F0
:100C5C0002F0E4FC0346002B01D000F07DF800BF4D
:100C6C0080BD00BFA80000200038014080B588B0CE
:100C7C0000AF07F10C0300221A605A609A60DA6028
:100C8C001A61184BDB6C174A43F00403D364154B01
:100C9C00DB6C03F00403BB60BB68124BDB6C114ACA
:100CAC0043F00103D3640F4BDB6C03F001037B6057
:100CBC007B6800224FF400510B4801F0FBF94FF414
:100CCC000053FB6001233B6100237B610023BB616C
:100CDC0007F10C031946044801F072F800BF2037E5
:100CEC00BD4680BD001002400008004880B582B0AF
:100CFC0000AF3B46082219460448FFF737FDD7E9F9
:100D0C000023104619460837BD4680BD18F8030865
:100D1C0080B582B000AF01F0A9FA00F099FB0B4B43
:100D2C005B6A0A4A23F4E0235362094B1B683B605D
:100D3C003B6883F3088800BF064B1B687B607B68AD
:100D4C00984700BF0837BD4680BD00BF00ED00E0EE
:100D5C0000A0000804A0000880B400AF72B600BF69
:100D6C0000BFFDE780B485B000AF78600023FB6066
:100D7C000FE00D4AFB6852F833307A689A4205D17D
:100D8C00094AFB68DB0013445B6806E0FB6801332F
:100D9C00FB60FB68022BECDD002318461437BD46C4
:100DAC005DF8047B704700BF6009002080B584B0FB
:100DBC0000AF78600B467B807868FFF7D3FFF86054
:100DCC00FB68002B0CD0FB68D3F81238002B07D033
:100DDC00FB68D3F81238FA68111D7A88F8689847BE
:100DEC0000BF1037BD4680BD80B485B000AF7860C1
:100DFC007B68002B03D07B681B68002B01D101237F
:100E0C0024E00023FB601DE0134AFB6852F83330EA
:100E1C00002B14D1104AFB68DB0013445B68002BD9
:100E2C000DD17B681A680C49FB6841F833200A4ADB
:100E3C00FB68DB0013447A685A60002306E0FB6809
:100E4C000133FB60FB68022BDEDD012318461437EF
:100E5C00BD465DF8047B70476009002080B584B006
:100E6C0000AFF860B9607A60FB6818687B689AB26A
:100E7C004FF4FA63B96802F01FFC034618461037AA
:100E8C00BD4680BD80B582B000AF78607B6804330E
:100E9C0040F60E020021184604F00EF87B68186824
:100EAC007B68043340F60E02194603F0D3FE03466A
:100EBC0018460837BD4680BD80B483B000AF0F4BD9
:100ECC001B6E0E4A43F0010313660C4B1B6E03F0B2
:100EDC0001037B607B68094B9B6D084A43F0805390
:100EEC009365064B9B6D03F080533B603B6800BFE2
:100EFC000C37BD465DF8047B704700BF0010024004
:100F0C0080B5A0B000AF786007F16C0300221A60C6
:100F1C005A609A60DA601A6107F110035C220021B2
:100F2C00184603F0C9FF7B681B68234A93423FD1E4
:100F3C0001233B6100233B6307F11003184602F0C9
:100F4C0063F80346002B01D0FFF706FF1B4B1B6E0B
:100F5C001A4A43F480431366184B1B6E03F4804308
:100F6C00FB60FB68154BDB6C144A43F00103D36444
:100F7C00124BDB6C03F00103BB60BB684FF4C06326
:100F8C00FB6602233B6700237B670323BB670723B6
:100F9C00FB6707F16C0319464FF0904000F010FF0F
:100FAC0000220121252000F0DCFB252000F0F5FBC0
:100FBC0000BF8037BD4680BD0038014000100240A4
:100FCC0080B400AF00BFFDE780B400AF00BFFDE709
:100FDC0080B400AF00BFFDE780B400AF00BFFDE7F9
:100FEC0080B400AF00BFFDE780B400AF00BFBD46CA
:100FFC005DF8047B704780B400AF00BFBD465DF860
:10100C00047B704780B400AF00BFBD465DF8047B25
:10101C00704780B500AF00F093FA00BF80BD0000B0
:10102C0080B500AF024802F0D1FB00BF80BD00BF0D
:10103C00A800002080B586B000AF7860144A154B2C
:10104C00D31A7B617B693B61134B1B68002B02D16C
:10105C00114B124A1A60104B1A687B6813443A6998
:10106C009A4207D203F040FF03460C221A604FF05D
:10107C00FF3309E0084B1B68FB60074B1A687B6861
:10108C001344054A1360FB6818461837BD4680BDEB
:10109C00000001200004000078090020C80A00208C
:1010AC0080B400AF064BD3F88830054A43F4700384
:1010BC00C2F8883000BFBD465DF8047B704700BFA6
:1010CC0000ED00E080B485B000AF78607B680C3335
:1010DC00FB60FB68BFF35B8F1B68BFF35B8FBB6070
:1010EC00BB68002B0CBF01230023DBB2184614375E
:1010FC00BD465DF8047B704784B080B584B000AF0A
:10110C00786007F11C0080E80E007B680C33FB60F4
:10111C00FB68BFF35B8F1B68BFF35B8FBB60BB6867
:10112C007A681269934202D14FF0FF332BE07B684F
:10113C001A687B689B6840F60E0101FB03F31344AD
:10114C00184607F11C0340F60E02194603F0F8FE90
:10115C007B689B6801337A681269B3FBF2F101FB7F
:10116C0002F29A1A7B689A607B680C33BFF35B8F30
:10117C0053E8001F01F1010143E80012002AF7D1E6
:10118C00BFF35B8F002318461037BD46BDE8804087
:10119C0004B0704780B5ADF6280D00AF07F62803F4
:1011AC00A3F62403186007F62803A3F62803196096
:1011BC0007F62803A3F628031B680C33C7F824385A
:1011CC00D7F82438BFF35B8F1B68BFF35B8FC7F86E
:1011DC001C38D7F81C38002B18D107F10C0340F63B
:1011EC000E020021184603F067FE07F62803A3F64B
:1011FC0024031A6807F62803A3F61C0310461946A5
:10120C0040F60E031A4603F09BFE4AE007F628034D
:10121C00A3F628031B685B68C7F8203807F6280379
:10122C00A3F628031B685B68013307F62802A2F6B5
:10123C00280212681269B3FBF2F101FB02F29A1A4E
:10124C0007F62803A3F628031B685A6007F6280341
:10125C00A3F628031B680C33BFF35B8F53E8001F06
:10126C0001F1FF3143E80012002AF7D1BFF35B8F85
:10127C0007F62803A3F628031B681A68D7F820384A
:10128C0040F60E0101FB03F31A4407F62803A3F6FC
:10129C0024031B681846114640F60E031A4603F049
:1012AC004FFE07F62803A3F62403186807F6280751
:1012BC00BD4680BD80B584B000AF7860396040F623
:1012CC000E01386803F016FD03461A467B681A6057
:1012DC007B681B68002B02D14FF0FF331EE07B684C
:1012EC0000221A7100225A7100229A710022DA71BE
:1012FC007B6800221A7200225A7200229A72002213
:10130C00DA727B680C33FB600023BB60BB681A4647
:10131C00FB681A607B683A681A610023184610371C
:10132C00BD4680BD80B582B000AF78600B46FB70C7
:10133C00FB78062B2CD801A252F823F06513000879
:10134C006D130008751300087D1300088513000841
:10135C008D130008951300087B6800225A6019E071
:10136C007B6801225A6015E07B6802225A6011E00A
:10137C007B6803225A600DE07B6804225A6009E006
:10138C007B6805225A6005E07B6806225A6001E002
:10139C0001230BE07B6840F6FF729A607B6840F695
:1013AC00FF72DA60786800F09DFE03461846083735
:1013BC00BD4680BD80B582B000AF7860786800F023
:1013CC00E0FE034618460837BD4680BDDFF834D032
:1013DC00FFF766FE0C480D490D4A002302E0D45875
:1013EC00C4500433C4188C42F9D30A4A0A4C002363
:1013FC0001E013600432A242FBD303F07BFDFFF744
:10140C0031FBFEE700000120000000207C000020E2
:10141C006C5000087C000020C80A0020FEE780B554
:10142C0082B000AF0023FB71032000F08FF90F2076
:10143C0000F04AF80346002B02D00123FB7101E0B7
:10144C00FFF73AFDFB7918460837BD4680BD000012
:10145C0080B500AF174B4FF0FF329A63154B4FF02E
:10146C00FF32DA63134B00229A63124B0022DA63C9
:10147C00104B4FF0FF321A640E4B00221A640D4BC6
:10148C004FF0FF329A620B4B00229A62094B4FF0DD
:10149C00FF32DA62074B0022DA62064B4FF0FF3262
:1014AC001A63044B00221A6300F006F80023184656
:1014BC0080BD00BF0010024080B400AF00BFBD462D
:1014CC005DF8047B7047000080B584B000AF786095
:1014DC000023FB73174B1B78002B23D0164B1A6879
:1014EC00144B1B7819464FF47A73B3FBF1F3B2FB30
:1014FC00F3F3184600F063F90346002B0FD17B6819
:10150C000F2B09D8002279684FF0FF3000F029F931
:10151C000A4A7B68136007E00123FB7304E0012394
:10152C00FB7301E00123FB73FB7B18461037BD46B0
:10153C0080BD00BF08000020000000200400002037
:10154C0080B400AF064B1B781A46064B1B6813443D
:10155C00044A136000BFBD465DF8047B704700BFB2
:10156C00080000207C09002080B400AF034B1B68EE
:10157C001846BD465DF8047B704700BF7C0900200F
:10158C0080B485B000AF78607B6803F00703FB6024
:10159C000C4BDB68BB60BA684FF6FF031340BB60B3
:1015AC00FB681A02BB68134343F0BF6343F4003378
:1015BC00BB60044ABB68D36000BF1437BD465DF8FE
:1015CC00047B704700ED00E080B400AF044BDB6897
:1015DC001B0A03F007031846BD465DF8047B7047F1
:1015EC0000ED00E080B483B000AF0346FB7197F9C7
:1015FC000730002B0BDBFB7903F01F02074997F92F
:10160C0007305B09012000FA02F241F8232000BFE9
:10161C000C37BD465DF8047B704700BF00E100E06D
:10162C0080B483B000AF03463960FB7197F9073083
:10163C00002B0ADB3B68DAB20C4997F90730120130
:10164C00D2B20B4483F800230AE03B68DAB20849B3
:10165C00FB7903F00F03043B1201D2B20B441A7650
:10166C0000BF0C37BD465DF8047B704700E100E01D
:10167C0000ED00E080B489B000AFF860B9607A602A
:10168C00FB6803F00703FB61FB69C3F10703042B41
:10169C0028BF0423BB61FB690433062B02D9FB6909
:1016AC00033B00E000237B614FF0FF32BB6902FA81
:1016BC0003F3DA43BB681A407B699A404FF0FF3161
:1016CC007B6901FA03F3D9437B680B40134318463B
:1016DC002437BD465DF8047B7047000080B400AF32
:1016EC00BFF34F8F00BF064BDB6803F4E062044985
:1016FC00044B1343CB60BFF34F8F00BF00BFFDE71C
:10170C0000ED00E00400FA0580B582B000AF78600F
:10171C007B68013BB3F1807F01D301230FE00A4AC0
:10172C007B68013B53600F214FF0FF30FFF778FFD0
:10173C00054B00229A60044B07221A6000231846BE
:10174C000837BD4680BD00BF10E000E080B582B018
:10175C0000AF78607868FFF713FF00BF0837BD460D
:10176C0080BD80B586B000AF0346B9607A60FB736C
:10177C0000237B61FFF728FF78617A68B968786984
:10178C00FFF778FF024697F90F3011461846FFF71E
:10179C0047FF00BF1837BD4680BD80B582B000AF93
:1017AC000346FB7197F907301846FFF71BFF00BF84
:1017BC000837BD4680BD80B500AFFFF78FFF80B501
:1017CC0082B000AF78607868FFF79EFF034618463A
:1017DC000837BD4680BD80B485B000AF786000236B
:1017EC00FB737B6893F82530DBB2022B08D07B6847
:1017FC000422DA637B68002283F82420012322E090
:10180C007B681B681A687B681B6822F00E021A60E2
:10181C007B681B681A687B681B6822F001021A60DF
:10182C007B685B6C03F01C027B681B6C012101FA6A
:10183C0002F25A607B68012283F825207B68002223
:10184C0083F82420FB7B18461437BD465DF8047BD7
:10185C00704780B584B000AF78600023FB737B6861
:10186C0093F82530DBB2022B05D07B680422DA63B7
:10187C000123FB7329E07B681B681A687B681B6873
:10188C0022F00E021A607B681B681A687B681B6862
:10189C0022F001021A607B685B6C03F01C027B680F
:1018AC001B6C012101FA02F25A607B68012283F859
:1018BC0025207B68002283F824207B689B6B002BFF
:1018CC0003D07B689B6B78689847FB7B1846103776
:1018DC00BD4680BD80B586B000AFF860B960C7E981
:1018EC00002300233B612F4B1B78012B01D10223DA
:1018FC0053E02C4B01221A704CF2503000F088F857
:10190C000346FB75FB7D002B43D1264B00225A600E
:10191C00254B1B6803F48063002B09D0224B1B68FA
:10192C00214A23F4806313601E4B02221A7702E0D3
:10193C001C4B00221A77FB68002B07D1D7E9002338
:10194C00B86800F0BBF801233B6110E0FB68012B89
:10195C0002D0FB68022B0AD13B681946B86800F02C
:10196C00D3F8FB68022B02D14FF480233B614CF27D
:10197C00503000F04DF80346FB753B69002B06D048
:10198C00094B5A693B69DB43074913404B6100F033
:10199C00CDF9044B00221A70FB7D18461837BD4652
:1019AC0080BD00BF0C0000200020024080B483B03A
:1019BC0000AF0023FB710B4B5B69002B0BDA094B5F
:1019CC00094A9A60074B094A9A60064B5B69002BDF
:1019DC0001DA0123FB71FB7918460C37BD465DF823
:1019EC00047B70470020024023016745AB89EFCD93
:1019FC0080B400AF054B5B69044A43F0004353616C
:101A0C0000231846BD465DF8047B70470020024059
:101A1C0080B584B000AF7860FFF7A6FDF8600DE0EC
:101A2C007B68B3F1FF3F09D0FFF79EFD0246FB68D0
:101A3C00D31A7A689A4201D8032335E01C4B1B69F0
:101A4C0003F48033002BEBD1194B1A69194B13405B
:101A5C00BB60BB68002B1DD0174B5A68BB68134387
:101A6C00154A5360BB68B3F1804F07D3104B9A698A
:101A7C00BB6803F040430E4913438B61BB6823F0F2
:101A8C004043002B04D00A4ABB6823F04043136147
:101A9C00012309E0064B1B6903F00103002B02D064
:101AAC00034B01221A61002318461037BD4680BD36
:101ABC0000200240FAC302000C00002080B485B064
:101ACC0000AFF860C7E900230E4B5B690D4A43F089
:101ADC0001035361FB683A681A60BFF36F8F00BF54
:101AEC00D7E900014FF000024FF000030A00002379
:101AFC00F968043113460B6000BF1437BD465DF81E
:101B0C00047B70470020024080B489B000AF78603D
:101B1C0039604023FB777B68BB613B687B61144B6E
:101B2C005B69134A43F480235361EFF31083FB602A
:101B3C00FB683B6172B600BF7B691A68BB691A60AF
:101B4C00BB690433BB617B6904337B61FB7F013B65
:101B5C00FB77FB7F002BEFD13B69BB60BB6883F34A
:101B6C00108800BF00BF2437BD465DF8047B70476A
:101B7C000020024080B584B000AF78603960484BDB
:101B8C001B78012B01D1022385E0454B01221A70F1
:101B9C004CF25030FFF73CFF0346FB73FB7B002BF2
:101BAC0075D13F4B00225A603E4B1B6803F4007307
:101BBC00002B13D03B4B1B6803F48063002B09D024
:101BCC00384B1B68374A23F480631360344B032271
:101BDC001A7716E0324B01221A7712E0314B1B6850
:101BEC0003F48063002B09D02E4B1B682D4A23F481
:101BFC00806313602A4B02221A7702E0284B0022E2
:101C0C001A777B681B68012B11D17B685B681846BF
:101C1C0000F04AF84CF25030FFF7FAFE0346FB7323
:101C2C00204B5B691F4A23F0040353612DE03B6892
:101C3C004FF0FF321A607B689B68BB601DE07B68CD
:101C4C005B681946B86800F04DF84CF25030FFF75D
:101C5C00DFFE0346FB73134B5B69124A23F47E735E
:101C6C0023F002035361FB7B002B03D03B68BA6863
:101C7C001A600AE0BB680133BB607B689A687B68BA
:101C8C00DB681344BA689A42D9D300F04FF8044B7E
:101C9C0000221A70FB7B18461037BD4680BD00BF72
:101CAC000C0000200020024080B483B000AF7860AC
:101CBC007B6803F00103002B05D0094B5B69084AD4
:101CCC0043F004035361064B5B69054A43F48033CC
:101CDC00536100BF0C37BD465DF8047B704700BFF5
:101CEC000020024080B483B000AF786039600E4BA6
:101CFC005B6923F47E727B68DB0003F4FF630A49A3
:101D0C0013434B61084B5B69074A43F00203536171
:101D1C00054B5B69044A43F48033536100BF0C37B5
:101D2C00BD465DF8047B70470020024080B483B050
:101D3C0000AF214B1B7FFB71FB79012B02D0FB7990
:101D4C00032B17D11D4B1B681C4A23F40073136023
:101D5C001A4B1B68194A43F400631360174B1B683A
:101D6C00164A23F400631360144B1B68134A43F4A4
:101D7C0000731360FB79022B02D0FB79032B11D17A
:101D8C000E4B1B680D4A43F4805313600B4B1B68BE
:101D9C000A4A23F480531360084B1B68074A43F428
:101DAC0080631360044B00221A7700BF0C37BD46CA
:101DBC005DF8047B704700BF0C000020002002403F
:101DCC0080B487B000AF7860396000237B6154E148
:101DDC003B681A6801217B6901FA03F31340FB602D
:101DEC00FB68002B00F046813B685B6803F0030343
:101DFC00012B05D03B685B6803F00303022B30D149
:101E0C007B689B683B617B695B00032202FA03F3EE
:101E1C00DB433A6913403B613B68DA687B695B00E2
:101E2C0002FA03F33A6913433B617B683A699A609F
:101E3C007B685B683B6101227B6902FA03F3DB433D
:101E4C003A6913403B613B685B681B0903F0010274
:101E5C007B6902FA03F33A6913433B617B683A6985
:101E6C005A603B685B6803F00303032B17D07B6855
:101E7C00DB683B617B695B00032202FA03F3DB4303
:101E8C003A6913403B613B689A687B695B0002FAD4
:101E9C0003F33A6913433B617B683A69DA603B6848
:101EAC005B6803F00303022B23D17B69DA087B68A0
:101EBC00083253F822303B617B6903F007039B0027
:101ECC000F2202FA03F3DB433A6913403B613B6890
:101EDC001A697B6903F007039B0002FA03F33A6962
:101EEC0013433B617B69DA087B680832396943F834
:101EFC0022107B681B683B617B695B00032202FA42
:101F0C0003F3DB433A6913403B613B685B6803F0C6
:101F1C0003027B695B0002FA03F33A6913433B61EA
:101F2C007B683A691A603B685B6803F44033002BAA
:101F3C0000F0A080584B1B6E574A43F00103136608
:101F4C00554B1B6E03F00103BB60BB68534A7B69A6
:101F5C009B08023352F823303B617B6903F0030387
:101F6C009B000F2202FA03F3DB433A6913403B61F7
:101F7C007B68B3F1904F19D07B68494A934213D0D8
:101F8C007B68484A93420DD07B68474A934207D0FE
:101F9C007B68464A934201D1042308E0072306E0FC
:101FAC00032304E0022302E0012300E000237A690A
:101FBC0002F00302920093403A6913433B613749A4
:101FCC007B699B0802333A6941F82320384B9B68A4
:101FDC003B61FB68DB433A6913403B613B685B68E0
:101FEC0003F48013002B03D03A69FB6813433B6165
:101FFC002F4A3B6993602E4BDB683B61FB68DB43EC
:10200C003A6913403B613B685B6803F40013002B97
:10201C0003D03A69FB6813433B61254A3B69D360A3
:10202C00234B5B683B61FB68DB433A6913403B61C4
:10203C003B685B6803F40033002B03D03A69FB6800
:10204C0013433B611A4A3B695360194B1B683B6154
:10205C00FB68DB433A6913403B613B685B6803F404
:10206C008033002B03D03A69FB6813433B61104A61
:10207C003B6913607B6901337B613B681A687B6940
:10208C0022FA03F3002B7FF4A3AE00BF00BF1C3772
:10209C00BD465DF8047B7047001002400000014013
:1020AC000004004800080048000C004800100048DC
:1020BC000004014080B483B000AF78600B467B8095
:1020CC0013467B707B78002B03D07A887B689A61EF
:1020DC0002E07A887B689A6200BF0C37BD465DF8D7
:1020EC00047B704780B584B000AF78607B68002BB0
:1020FC0001D1012341E07B681B684CF6CC421A608D
:10210C007B681B6845F255521A607B681B687A68BD
:10211C0052685A607B681B687A6892689A60FFF70D
:10212C0023FAF8600FE0FFF71FFA0246FB68D31A98
:10213C00312B08D97B681B68DB6803F00703002B85
:10214C0001D0032319E07B681B68DB6803F00703ED
:10215C00002BE8D17B681B681A697B68DB689A42A4
:10216C0005D07B681B687A68D2681A6104E07B68CA
:10217C001B684AF6AA221A60002318461037BD467F
:10218C0080BD80B483B000AF78607B681B684AF672
:10219C00AA221A60002318460C37BD465DF8047B52
:1021AC007047000080B400AF044B1B6803F4C0639D
:1021BC001846BD465DF8047B704700BF00700040B8
:1021CC0080B485B000AF78607B68B3F5007F30D108
:1021DC00234B1B6803F4C063B3F5007F38D0204B4E
:1021EC001B6823F4C0631E4A43F4007313601D4B39
:1021FC001B68322202FB03F31B4AA2FB03239B0C3A
:10220C000133FB6002E0FB68013BFB60144B5B6934
:10221C0003F48063B3F5806F02D1FB68002BF2D11D
:10222C000F4B5B6903F48063B3F5806F10D103230C
:10223C000FE00B4B1B6803F4C063B3F5806F07D042
:10224C00074B1B6823F4C063054A43F48063136097
:10225C00002318461437BD465DF8047B704700BF59
:10226C00007000400000002083DE1B4380B582B06C
:10227C0000AF454B1B68444A43F001031360FFF762
:10228C0073F9786008E0FFF76FF902467B68D31AA0
:10229C00022B01D9032373E03B4B1B6803F00203B1
:1022AC00002BF0D0384B1B6823F0F003364A43F078
:1022BC0060031360344B00229A60344B344A1A602A
:1022CC00344B1B681846FFF7FFF80346002B01D070
:1022DC00012355E0FFF748F978600AE0FFF744F96D
:1022EC0002467B68D31A41F28832934201D9032308
:1022FC0046E0254B9B6803F00C03002BEED1224BE0
:10230C001A682149244B13400B60FFF72DF97860B4
:10231C0008E0FFF729F902467B68D31A022B01D992
:10232C0003232DE0184B1B6803F02063002BF0D126
:10233C00154B0022DA60144BDB68134A43F48053CC
:10234C00D360114B00221A610F4B1B690E4A43F4E8
:10235C00805313610C4B1B680B4A23F480231360CE
:10236C00094B00229A61084B4FF0FF321A62064B60
:10237C00D3F89430044A43F40003C2F89430002399
:10238C0018460837BD4680BD0010024000000020F2
:10239C0000093D0004000020FFF4FEFA80B588B06F
:1023AC0000AF78607B68002B02D1012300F002BCE7
:1023BC00964B9B6803F00C03BB61944BDB6803F0FA
:1023CC0003037B617B681B6803F01003002B00F098
:1023DC00E480BB69002B07D0BB690C2B40F08B80D1
:1023EC007B69012B40F08780884B1B6803F002034C
:1023FC00002B05D07B689B69002B01D10123D9E30D
:10240C007B681A6A814B1B6803F00803002B04D00D
:10241C007E4B1B6803F0F00305E07C4BD3F8943043
:10242C001B0903F0F003934223D27B681B6A184606
:10243C0000F08AFD0346002B01D00123BAE3734B55
:10244C001B68724A43F008031360704B1B6823F03F
:10245C00F0027B681B6A6D4913430B606B4B5B6826
:10246C0023F47F427B68DB691B02684913434B6092
:10247C0025E0664B1B68654A43F008031360634B09
:10248C001B6823F0F0027B681B6A604913430B60E6
:10249C005E4B5B6823F47F427B68DB691B025B4904
:1024AC0013434B60BB69002B09D17B681B6A184630
:1024BC0000F04AFD0346002B01D001237AE300F023
:1024CC0081FC0246514B9B681B0903F00F035049DA
:1024DC00CB5C03F01F0322FA03F34E4A13604E4BFE
:1024EC001B681846FEF7F0FF0346FB73FB7B002BC3
:1024FC0052D0FB7B5EE37B689B69002B32D0434B55
:10250C001B68424A43F001031360FFF72DF8386152
:10251C0008E0FFF729F802463B69D31A022B01D9D0
:10252C00032347E3394B1B6803F00203002BF0D065
:10253C00364B1B68354A43F008031360334B1B685A
:10254C0023F0F0027B681B6A304913430B602F4B5E
:10255C005B6823F47F427B68DB691B022B491343C6
:10256C004B601AE0294B1B68284A23F001031360C7
:10257C00FEF7FAFF386108E0FEF7F6FF02463B690A
:10258C00D31A022B01D9032314E3204B1B6803F04D
:10259C000203002BF0D100E000BF7B681B6803F046
:1025AC000103002B73D0BB69082B05D0BB690C2B26
:1025BC000ED17B69032B0BD1144B1B6803F4003336
:1025CC00002B63D07B685B68002B5FD10123F1E2A9
:1025DC007B685B68B3F5803F06D10C4B1B680B4ADC
:1025EC0043F48033136025E07B685B68B3F5A02F60
:1025FC0014D1064B1B68054A43F480231360034B2C
:10260C001B68024A43F48033136013E0001002404D
:10261C00145000080000002004000020A04B1B6890
:10262C009F4A23F4803313609D4B1B689C4A23F410
:10263C00802313607B685B68002B13D0FEF794FF3C
:10264C00386108E0FEF790FF02463B69D31A642B11
:10265C0001D90323AEE2924B1B6803F40033002B29
:10266C00F0D014E0FEF780FF386108E0FEF77CFF45
:10267C0002463B69D31A642B01D903239AE2884B97
:10268C001B6803F40033002BF0D100E000BF7B6823
:10269C001B6803F00203002B60D0BB69042B05D030
:1026AC00BB690C2B19D17B69022B16D17C4B1B6897
:1026BC0003F48063002B05D07B68DB68002B01D111
:1026CC00012377E2764B5B6823F0F8527B681B6939
:1026DC001B06734913434B6040E07B68DB68002B9F
:1026EC0023D06F4B1B686E4A43F480731360FEF764
:1026FC003BFF386108E0FEF737FF02463B69D31A0F
:10270C00022B01D9032355E2654B1B6803F480634C
:10271C00002BF0D0624B5B6823F0F8527B681B698E
:10272C001B065F4913434B6018E05D4B1B685C4A0A
:10273C0023F480731360FEF717FF386108E0FEF78F
:10274C0013FF02463B69D31A022B01D9032331E252
:10275C00534B1B6803F48063002BF0D17B681B6820
:10276C0003F00803002B3CD07B685B69002B1CD06A
:10277C004B4BD3F894304A4A43F00103C2F89430DF
:10278C00FEF7F2FE386108E0FEF7EEFE02463B690A
:10279C00D31A022B01D903230CE2414BD3F894300A
:1027AC0003F00203002BEFD01BE03D4BD3F8943029
:1027BC003B4A23F00103C2F89430FEF7D5FE386192
:1027CC0008E0FEF7D1FE02463B69D31A022B01D971
:1027DC000323EFE1324BD3F8943003F00203002BC8
:1027EC00EFD17B681B6803F00403002B00F0A6807C
:1027FC000023FB772A4B9B6D03F08053002B0DD1EC
:10280C00274B9B6D264A43F080539365244B9B6D5D
:10281C0003F08053BB60BB680123FB77214B1B6823
:10282C0003F48073002B18D11E4B1B681D4A43F414
:10283C0080731360FEF798FE386108E0FEF794FE93
:10284C0002463B69D31A022B01D90323B2E1154B83
:10285C001B6803F48073002BF0D07B689B68012B02
:10286C0008D10F4BD3F890300D4A43F00103C2F856
:10287C00903029E07B689B68052B15D1084BD3F869
:10288C009030074A43F00403C2F89030044BD3F85D
:10289C009030034A43F00103C2F8903014E000BFBB
:1028AC0000100240007000409A4BD3F89030994AC7
:1028BC0023F00103C2F89030964BD3F89030954A30
:1028CC0023F00403C2F890307B689B68002B16D071
:1028DC00FEF74AFE38610AE0FEF746FE02463B6907
:1028EC00D31A41F28832934201D9032362E1894B16
:1028FC00D3F8903003F00203002BEDD015E0FEF777
:10290C0033FE38610AE0FEF72FFE02463B69D31A0C
:10291C0041F28832934201D903234BE17D4BD3F82A
:10292C00903003F00203002BEDD1FB7F012B05D17E
:10293C00784B9B6D774A23F0805393657B681B68BB
:10294C0003F02003002B3CD07B685B6A002B1CD06F
:10295C00704BD3F898306F4A43F00103C2F89830AB
:10296C00FEF702FE386108E0FEF7FEFD02463B6909
:10297C00D31A022B01D903231CE1664BD3F89830F0
:10298C0003F00203002BEFD01BE0624BD3F898301E
:10299C00604A23F00103C2F89830FEF7E5FD386178
:1029AC0008E0FEF7E1FD02463B69D31A022B01D980
:1029BC000323FFE0574BD3F8983003F00203002BAE
:1029CC00EFD17B689B6A002B00F0F3807B689B6ADD
:1029DC00022B40F0C9804F4BDB687B617B6903F0B5
:1029EC0003027B68DB6A9A422CD17B6903F070028C
:1029FC007B681B6B013B1B019A4223D17B6903F45F
:102A0C00FE427B685B6B1B029A421BD17B6903F015
:102A1C0078427B689B6BDB069A4213D17B6903F48B
:102A2C00C0027B68DB6B5B08013B5B059A4209D1FA
:102A3C007B6903F0C0627B681B6C5B08013B5B0627
:102A4C009A426BD0BB690C2B62D0324B1B6803F0E3
:102A5C008063002B01D00123ACE02E4B1B682D4A68
:102A6C0023F080731360FEF77FFD386108E0FEF7FA
:102A7C007BFD02463B69D31A022B01D9032399E053
:102A8C00244B1B6803F00073002BF0D1214BDA6848
:102A9C00214B13407A68D16A7A68126B013A1201A1
:102AAC0011437A68526B120211437A68D26B520846
:102ABC00013A520511437A68126C5208013A5206D7
:102ACC0011437A68926BD2060A4312491343CB60C6
:102ADC00104B1B680F4A43F0807313600D4BDB687F
:102AEC000C4A43F08073D360FEF73EFD386108E07A
:102AFC00FEF73AFD02463B69D31A022B01D9032398
:102B0C0058E0044B1B6803F00073002BF0D050E02E
:102B1C0001234FE0001002408C809D01274B1B6865
:102B2C0003F00073002B44D1244B1B68234A43F061
:102B3C0080731360214BDB68204A43F08073D360B1
:102B4C00FEF712FD386108E0FEF70EFD02463B6908
:102B5C00D31A022B01D903232CE0184B1B6803F06A
:102B6C000073002BF0D024E0BB690C2B1FD0134B4F
:102B7C001B68124A23F080731360FEF7F5FC386172
:102B8C0008E0FEF7F1FC02463B69D31A022B01D98F
:102B9C0003230FE0094B1B6803F00073002BF0D1EB
:102BAC00064BDA680549064B1340CB6001E0012364
:102BBC0000E0002318462037BD4680BD00100240BF
:102BCC00FCFFEEFE80B584B000AF786039607B68A6
:102BDC00002B01D10123E7E0754B1B6803F00703C1
:102BEC003A689A4210D9724B1B6823F0070270495D
:102BFC003B6813430B606E4B1B6803F007033A688A
:102C0C009A4201D00123CFE07B681B6803F00203DA
:102C1C00002B10D07B689A68664B9B6803F0F0031E
:102C2C009A4208D9634B9B6823F0F0027B689B683F
:102C3C00604913438B607B681B6803F00103002B16
:102C4C004CD07B685B68032B07D15A4B1B6803F095
:102C5C000073002B21D10123A6E07B685B68022B5B
:102C6C0007D1544B1B6803F40033002B15D10123FF
:102C7C009AE07B685B68002B07D14E4B1B6803F016
:102C8C000203002B09D101238EE04A4B1B6803F48D
:102C9C008063002B01D1012386E0464B9B6823F017
:102CAC0003027B685B68434913438B60FEF75CFC53
:102CBC00F8600AE0FEF758FC0246FB68D31A41F2B2
:102CCC008832934201D903236EE03A4B9B6803F0A0
:102CDC000C027B685B689B009A42EBD17B681B689B
:102CEC0003F00203002B10D07B689A68314B9B6871
:102CFC0003F0F0039A4208D22E4B9B6823F0F002AB
:102D0C007B689B682B4913438B60294B1B6803F032
:102D1C0007033A689A4210D2254B1B6823F007022E
:102D2C0023493B6813430B60214B1B6803F00703DB
:102D3C003A689A4201D0012336E07B681B6803F0A5
:102D4C000403002B08D01B4B9B6823F4E0627B68C8
:102D5C00DB68184913438B607B681B6803F008031E
:102D6C00002B09D0134B9B6823F460527B681B69C2
:102D7C00DB00104913438B6000F024F802460D4B26
:102D8C009B681B0903F00F030B49CB5C03F01F037B
:102D9C0022FA03F3094A1360094B1B681846FEF725
:102DAC0093FB0346FB72FB7A18461037BD4680BD79
:102DBC0000200240001002401450000800000020C7
:102DCC000400002080B489B000AF0023FB61002315
:102DDC00BB613E4B9B6803F00C033B613B4BDB68D8
:102DEC0003F00303FB603B69002B05D03B690C2B04
:102DFC0021D1FB68012B1ED1344B1B6803F0080357
:102E0C00002B07D1314BD3F894301B0A03F00F037E
:102E1C00FB6105E02D4B1B681B0903F00F03FB61E5
:102E2C002B4AFB6952F82330FB613B69002B0DD117
:102E3C00FB69BB610AE03B69042B02D1254BBB61EA
:102E4C0004E03B69082B01D1224BBB613B690C2B85
:102E5C0034D11E4BDB6803F00303BB60BB68022B51
:102E6C0003D0BB68032B03D005E01A4B7B6105E054
:102E7C00184B7B6102E0FB697B6100BF134BDB6885
:102E8C001B0903F0070301337B60104BDB681B0A43
:102E9C0003F07F037A6903FB02F27B68B2FBF3F366
:102EAC007B610A4BDB685B0E03F0030301335B00B1
:102EBC003B607A693B68B2FBF3F3BB61BB691846B4
:102ECC002437BD465DF8047B704700BF00100240FC
:102EDC002C5000080024F40080B400AF034B1B6896
:102EEC001846BD465DF8047B704700BF000000200B
:102EFC0080B500AFFFF7F0FF0246064B9B681B0A3C
:102F0C0003F007030449CB5C03F01F0322FA03F31D
:102F1C00184680BD001002402450000880B500AF58
:102F2C00FFF7DAFF0246064B9B68DB0A03F0070348
:102F3C000449CB5C03F01F0322FA03F3184680BD4F
:102F4C00001002402450000880B586B000AF7860B5
:102F5C0000233B612A4B9B6D03F08053002B03D065
:102F6C00FFF720F9786114E0254B9B6D244A43F060
:102F7C0080539365224B9B6D03F08053FB60FB6881
:102F8C00FFF710F978611E4B9B6D1D4A23F080539F
:102F9C0093657B69B3F5007F0BD17B68802B19D9C6
:102FAC007B68A02B02D902233B6113E001233B6118
:102FBC0010E07B68802B02D903233B610AE07B681D
:102FCC00802B02D102233B6104E07B68702B01D182
:102FDC0001233B610B4B1B6823F0070209493B693A
:102FEC0013430B60074B1B6803F007033A699A42C3
:102FFC0001D0012300E0002318461837BD4680BDE0
:10300C00001002400020024080B586B000AF78600E
:10301C000023FB740023BB747B681B6803F4006300
:10302C00002B31D07B685B6CB3F5400F1AD0B3F535
:10303C00400F14D8002B09D0B3F5000F0FD15D4B06
:10304C00DB685C4A43F48033D3600CE07B68043368
:10305C000021184600F0F0F90346FB7403E001234D
:10306C00FB7400E000BFFB7C002B0BD1514BD3F861
:10307C00883023F440027B685B6C4E491343C1F8E3
:10308C00883001E0FB7CBB747B681B6803F4003365
:10309C00002B00F09E8000237B74464B9B6D03F04D
:1030AC008053002B01D1012300E00023002B0DD015
:1030BC00404B9B6D3F4A43F0805393653D4B9B6D5A
:1030CC0003F08053BB60BB6801237B743A4B1B68D5
:1030DC00394A43F480731360FEF746FAF86009E04E
:1030EC00FEF742FA0246FB68D31A022B02D90323DD
:1030FC00FB7405E0304B1B6803F48073002BEFD09E
:10310C00FB7C002B5AD12B4BD3F8903003F440733B
:10311C007B617B69002B1ED07B689B6D7A699A4220
:10312C0019D0244BD3F8903023F440737B61214B9E
:10313C00D3F890301F4A43F48033C2F890301D4BC3
:10314C00D3F890301B4A23F48033C2F89030194ADC
:10315C007B69C2F890307B6903F00103002B16D019
:10316C00FEF702FAF8600BE0FEF7FEF90246FB6888
:10317C00D31A41F28832934202D90323FB7406E03E
:10318C000C4BD3F8903003F00203002BECD0FB7CFB
:10319C00002B0BD1074BD3F8903023F440727B6893
:1031AC009B6D04491343C1F8903009E0FB7CBB7460
:1031BC0006E000BF0010024000700040FB7CBB74B6
:1031CC007B7C012B05D19B4B9B6D9A4A23F0805342
:1031DC0093657B681B6803F00103002B0AD0954BA9
:1031EC00D3F8883023F003027B681B6A91491343A0
:1031FC00C1F888307B681B6803F00203002B0AD0EF
:10320C008C4BD3F8883023F00C027B685B6A8949BD
:10321C001343C1F888307B681B6803F00403002B50
:10322C000AD0844BD3F8883023F030027B689B6A39
:10323C0080491343C1F888307B681B6803F0200376
:10324C00002B0AD07B4BD3F8883023F440627B6888
:10325C00DB6A78491343C1F888307B681B6803F438
:10326C000073002B0AD0734BD3F8883023F4402220
:10327C007B68DB6B6F491343C1F888307B681B6834
:10328C0003F48063002B0AD06A4BD3F8883023F404
:10329C0040127B681B6C67491343C1F888307B680C
:1032AC001B6803F04003002B0AD0624BD3F8883024
:1032BC0023F440527B681B6B5E491343C1F8883082
:1032CC007B681B6803F08003002B0AD0594BD3F8A2
:1032DC00883023F440427B685B6B56491343C1F83A
:1032EC0088307B681B6803F48073002B0AD0514B29
:1032FC00D3F8883023F440327B689B6B4D491343E1
:10330C00C1F888307B681B6803F40023002B28D09D
:10331C00484BD3F8883023F040627B689B6C45495E
:10332C001343C1F888307B689B6CB3F1006F06D1F6
:10333C00404BDB683F4A43F48013D36011E07B6859
:10334C009B6CB3F1806F0CD17B6804330121184660
:10335C0000F072F80346FB74FB7C002B01D0FB7C65
:10336C00BB747B681B6803F48023002B28D0314B83
:10337C00D3F8883023F040627B68DB6C2D49134313
:10338C00C1F888307B68DB6CB3F1006F06D1294B38
:10339C00DB68284A43F48013D36011E07B68DB6C54
:1033AC00B3F1806F0CD17B6804330121184600F017
:1033BC0043F80346FB74FB7C002B01D0FB7CBB74F5
:1033CC007B681B6803F48043002B1CD0194BD3F88B
:1033DC00883023F040527B681B6D16491343C1F8AB
:1033EC0088307B681B6DB3F1805F0CD17B68043334
:1033FC000221184600F020F80346FB74FB7C002BDE
:10340C0001D0FB7CBB747B681B6803F40043002B6E
:10341C000AD0084BD3F8883023F080427B685B6D70
:10342C0004491343C1F88830BB7C18461837BD4695
:10343C0080BD00BF0010024080B584B000AF786042
:10344C0039600023FB73744BDB6803F00303002B20
:10345C0018D0714BDB6803F003027B681B689A423F
:10346C000DD17B681B68002B09D06B4BDB681B09EB
:10347C0003F007035A1C7B685B689A4247D0012310
:10348C00FB7344E07B681B68032B18D0032B25D8F7
:10349C00012B02D0022B09D020E05F4B1B6803F0FC
:1034AC000203002B1DD10123FB731AE05A4B1B683E
:1034BC0003F48063002B16D10123FB7313E0564BEE
:1034CC001B6803F40033002B0FD1534B1B6803F420
:1034DC008023002B09D10123FB7306E00123FB732E
:1034EC0004E000BF02E000BF00E000BFFB7B002B4C
:1034FC000DD1494BDB6823F073027B6819687B683C
:10350C005B68013B1B010B4343491343CB60FB7BC3
:10351C00002B7CD1404B1B683F4A23F08063136027
:10352C00FEF722F8B86009E0FEF71EF80246BB6809
:10353C00D31A022B02D90323FB7305E0364B1B680D
:10354C0003F00063002BEFD1FB7B002B5FD13B68BA
:10355C00002B10D1304B1B6923F0784323F4FE432E
:10356C007A68926811027A68D268D2060A432A49AC
:10357C0013430B6127E03B68012B12D1264B1B69CF
:10358C0023F4C00323F4FE437A68926811027A682C
:10359C0012695208013A52050A431F4913430B6141
:1035AC0011E01D4B1B6923F0C06323F4FE437A68C2
:1035BC00926811027A6852695208013A52060A431B
:1035CC00154913430B61144B1B68134A43F080637A
:1035DC001360FDF7C9FFB86009E0FDF7C5FF0246AF
:1035EC00BB68D31A022B02D90323FB7305E00A4BE9
:1035FC001B6803F00063002BEFD0FB7B002B06D184
:10360C00054B1A697B689B69034913430B61FB7B70
:10361C0018461037BD4680BD0010024080B582B000
:10362C0000AF78607B68002B01D1012340E07B6800
:10363C00DB6F002B06D17B68002283F8782078683A
:10364C00FDF75EFC7B682422DA677B681B681A68CE
:10365C007B681B6822F001021A607B685B6A002B96
:10366C0002D0786800F014FE786800F0B7FB0346CF
:10367C00012B01D101231BE07B681B685A687B6816
:10368C001B6822F490425A607B681B689A687B68BE
:10369C001B6822F02A029A607B681B681A687B6898
:1036AC001B6842F001021A60786800F093FE034632
:1036BC0018460837BD4680BD80B58AB002AFF860A9
:1036CC00B9603B601346FB80FB68DB6F202B77D126
:1036DC00BB68002B02D0FB88002B01D1012370E0CA
:1036EC00FB680022C3F88420FB682122DA67FDF70F
:1036FC003BFF7861FB68FA88A3F85020FB68FA88D6
:10370C00A3F85220FB689B68B3F5805F08D1FB6877
:10371C001B69002B04D10023FB61BB68BB6103E078
:10372C00BB68FB610023BB612FE03B6800937B69A6
:10373C0000228021F86800F0F5FE0346002B04D02F
:10374C00FB682022DA6703233BE0FB69002B0BD1DB
:10375C00BB691A88FB681B68C2F3080292B21A850F
:10376C00BB690233BB6107E0FB691A78FB681B6815
:10377C001A85FB690133FB61FB68B3F852309BB2CD
:10378C00013B9AB2FB68A3F85220FB68B3F85230A5
:10379C009BB2002BC9D13B6800937B69002240216E
:1037AC00F86800F0BFFE0346002B04D0FB68202213
:1037BC00DA67032305E0FB682022DA67002300E0C8
:1037CC00022318462037BD4680BD000080B5BAB034
:1037DC0000AF78607B681B68DB69C7F8E4307B68F6
:1037EC001B681B68C7F8E0307B681B689B68C7F8D0
:1037FC00DC30D7F8E42040F60F031340C7F8D8307C
:10380C00D7F8D830002B15D1D7F8E43003F02003CB
:10381C00002B0FD0D7F8E03003F02003002B09D099
:10382C007B689B6E002B00F0AE827B689B6E786889
:10383C009847A8E2D7F8D830002B00F01781D7F8BA
:10384C00DC3003F00103002B06D1D7F8E020854BC8
:10385C001340002B00F00A81D7F8E43003F0010389
:10386C00002B11D0D7F8E03003F48073002B0BD071
:10387C007B681B6801221A627B68D3F8843043F0A2
:10388C0001027B68C3F88420D7F8E43003F002030C
:10389C00002B11D0D7F8DC3003F00103002B0BD038
:1038AC007B681B6802221A627B68D3F8843043F071
:1038BC0004027B68C3F88420D7F8E43003F00403D7
:1038CC00002B11D0D7F8DC3003F00103002B0BD008
:1038DC007B681B6804221A627B68D3F8843043F03F
:1038EC0002027B68C3F88420D7F8E43003F00803A5
:1038FC00002B17D0D7F8E03003F02003002B05D1B4
:10390C00D7F8DC3003F00103002B0BD07B681B686D
:10391C0008221A627B68D3F8843043F008027B6873
:10392C00C3F88420D7F8E43003F40063002B12D0E2
:10393C00D7F8E03003F08063002B0CD07B681B6859
:10394C004FF400621A627B68D3F8843043F0200293
:10395C007B68C3F884207B68D3F88430002B00F09C
:10396C001482D7F8E43003F02003002B0DD0D7F8E5
:10397C00E03003F02003002B07D07B689B6E002BFC
:10398C0003D07B689B6E786898477B68D3F884304B
:10399C00C7F8D4307B681B689B6803F04003402B4E
:1039AC0005D0D7F8D43003F02803002B4FD078681B
:1039BC0000F0E6FE7B681B689B6803F04003402B1D
:1039CC0041D17B681B680833C7F89C30D7F89C3012
:1039DC0053E8003FC7F89830D7F8983023F04003ED
:1039EC00C7F8D0307B681B680833D7F8D020C7F8ED
:1039FC00A820C7F8A430D7F8A410D7F8A82041E81D
:103A0C000023C7F8A030D7F8A030002BD9D17B68A1
:103A1C005B6F002B13D07B685B6F134A9A637B68D8
:103A2C005B6F1846FDF715FF0346002B17D07B681C
:103A3C005B6F9B6B7A68526F104698470FE0786803
:103A4C0000F0C2F90BE0786800F0BEF907E0786886
:103A5C0000F0BAF97B680022C3F8842095E100BF1E
:103A6C0093E100BF20010004554800087B681B6EE1
:103A7C00012B40F04E81D7F8E43003F01003002BFB
:103A8C0000F04781D7F8E03003F01003002B00F072
:103A9C0040817B681B6810221A627B681B689B68DC
:103AAC0003F04003402B40F0B8807B685B6F1B68D1
:103ABC005B68A7F8BE30B7F8BE30002B00F067810A
:103ACC007B68B3F85830B7F8BE209A4280F05F811B
:103ADC007B68B7F8BE20A3F85A207B685B6F1B6825
:103AEC001B6803F02003002B40F086807B681B686A
:103AFC00C7F88830D7F8883053E8003FC7F88430CF
:103B0C00D7F8843023F48073C7F8B8307B681B680F
:103B1C001A46D7F8B830C7F89430C7F89020D7F8C1
:103B2C009010D7F8942041E80023C7F88C30D7F8D0
:103B3C008C30002BDAD17B681B6808337B677B6F7A
:103B4C0053E8003F3B673B6F23F00103C7F8B430E9
:103B5C007B681B680833D7F8B420C7F88020FB6754
:103B6C00F96FD7F8802041E80023BB67BB6F002BAF
:103B7C00E1D17B681B6808333B663B6E53E8003F22
:103B8C00FB65FB6D23F04003C7F8B0307B681B6806
:103B9C000833D7F8B020FA66BB66B96EFA6E41E806
:103BAC0000237B667B6E002BE3D17B682022C3F85D
:103BBC0080207B6800221A667B681B68FB64FB6CA8
:103BCC0053E8003FBB64BB6C23F01003C7F8AC3068
:103BDC007B681B681A46D7F8AC30BB657A65796D83
:103BEC00BA6D41E800233B653B6D002BE4D17B684B
:103BFC005B6F1846FDF7EFFD7B6802225A667B6807
:103C0C00B3F858207B68B3F85A309BB2D31A9BB2E6
:103C1C0019467868FDF7CAF8B9E07B68B3F8582004
:103C2C007B68B3F85A309BB2D31AA7F8CE307B68B6
:103C3C00B3F85A309BB2002B00F0AB80B7F8CE3003
:103C4C00002B00F0A6807B681B68BB63BB6B53E842
:103C5C00003F7B637B6B23F49073C7F8C8307B68A1
:103C6C001B681A46D7F8C8307B643A64396C7A6C96
:103C7C0041E80023FB63FB6B002BE4D17B681B68E2
:103C8C0008337B627B6A53E8003F3B623B6A23F05C
:103C9C000103C7F8C4307B681B680833D7F8C4200D
:103CAC003A63FB62F96A3A6B41E80023BB62BB6A78
:103CBC00002BE3D17B682022C3F880207B68002294
:103CCC001A667B6800229A667B681B683B613B69BD
:103CDC0053E8003FFB60FB6823F01003C7F8C030CB
:103CEC007B681B681A46D7F8C030FB61BA61B969AA
:103CFC00FA6941E800237B617B69002BE4D17B6886
:103D0C0002225A66B7F8CE3019467868FDF74EF89D
:103D1C003FE0D7F8E43003F48013002B0ED0D7F833
:103D2C00DC3003F48003002B08D07B681B684FF455
:103D3C0080121A62786800F083FF2DE0D7F8E43027
:103D4C0003F08003002B0ED0D7F8E03003F0800393
:103D5C00002B08D07B68DB6E002B1CD07B68DB6EE5
:103D6C007868984717E0D7F8E43003F04003002B4D
:103D7C0012D0D7F8E03003F04003002B0CD0786859
:103D8C0000F078FD08E000BF06E000BF04E000BFD3
:103D9C0002E000BF00E000BFE837BD4680BD00BFB9
:103DAC0080B483B000AF786000BF0C37BD465DF8BF
:103DBC00047B704780B483B000AF786000BF0C37D1
:103DCC00BD465DF8047B704780B483B000AF78606B
:103DDC0000BF0C37BD465DF8047B70472DE9B04F32
:103DEC008AB000AFF860002387F82230FB689A682D
:103DFC00FB681B691A43FB685B691A43FB68DB6948
:103E0C0013437B62FB681B681A689E4B1340FA686D
:103E1C001268796A0B431360FB681B685B6823F4B8
:103E2C004051FB68DA68FB681B680A435A60FB6800
:103E3C009B697B62FB681B68934A934204D0FB68C6
:103E4C001B6A7A6A13437B62FB681B689B6823F4CA
:103E5C003061FB681B687A6A0A439A60FB681B68CE
:103E6C008A4A934226D18A4BD3F8883003F0030355
:103E7C00032B1BD801A252F823F000BF993E000877
:103E8C00A93E0008A13E0008B13E0008012387F8B6
:103E9C002330ABE0022387F82330A7E0042387F814
:103EAC002330A3E0082387F823309FE0102387F802
:103EBC0023309BE0FB681B68764A934238D1744BE5
:103ECC00D3F8883003F00C030C2B2DD801A252F838
:103EDC0023F000BF153F0008353F0008353F0008B0
:103EEC00353F0008253F0008353F0008353F0008E6
:103EFC00353F00081D3F0008353F0008353F0008DE
:103F0C00353F00082D3F0008002387F823306DE073
:103F1C00022387F8233069E0042387F8233065E017
:103F2C00082387F8233061E0102387F823305DE005
:103F3C00FB681B68584A934225D1554BD3F88830FF
:103F4C0003F03003302B16D0302B18D8202B0AD08E
:103F5C00202B14D8002B02D0102B08D00FE00023FC
:103F6C0087F8233042E0022387F823303EE0042315
:103F7C0087F823303AE0082387F8233036E0102303
:103F8C0087F8233032E0FB681B683F4A93422AD102
:103F9C003F4BD3F8883003F44063B3F5406F1AD02D
:103FAC00B3F5406F1BD8B3F5006F0CD0B3F5006FB1
:103FBC0015D8002B03D0B3F5806F08D00FE0002389
:103FCC0087F8233012E0022387F823300EE0042315
:103FDC0087F823300AE0082387F8233006E0102303
:103FEC0087F8233002E0102387F82330FB681B6826
:103FFC00254A934240F08A8097F82330082B24D826
:10400C0001A252F823F000BF3940000857400008C5
:10401C00414000085740000847400008574000083E
:10402C0057400008574000084F400008FEF760FF5B
:10403C00F86110E0194BFB610DE0FEF7C3FEF8616F
:10404C0009E04FF40043FB6105E00023FB61012311
:10405C0087F8223000BFFB69002B00F00981FB6858
:10406C005A6813465B001344FA699A4205D3FB68FD
:10407C005B681B03FA699A4212D9012387F8223034
:10408C00F6E000BFF369FFEF00800040003801400C
:10409C000010024000440040004800400024F4009E
:1040AC00FB6900221C4615464FF000024FF000033E
:1040BC002B0243EA14632202F9684968490800207C
:1040CC008846814612EB080A43EB090BFB685B68D8
:1040DC0000223B607A60D7E9002350465946FCF732
:1040EC006FF802460B461346BB61BB69B3F5407FC4
:1040FC0008D3BB69B3F5801F04D2FB681B68BA698F
:10410C00DA60B5E0012387F82230B1E0FB68DB69A7
:10411C00B3F5004F5DD197F82330082B27D801A2B7
:10412C0052F823F0554100085D4100086541000834
:10413C007B4100086B4100087B4100087B41000873
:10414C007B41000873410008FEF7D2FEF86114E0D1
:10415C00FEF7E4FEF86110E04C4BFB610DE0FEF75E
:10416C0031FEF86109E04FF40043FB6105E00023E8
:10417C00FB61012387F8223000BFFB69002B77D04D
:10418C00FB695A00FB685B685B081A44FB685B6858
:10419C00B2FBF3F3BB61BB690F2B16D9BB69B3F54B
:1041AC00803F12D2BB699BB223F00F03FB82BB6929
:1041BC005B089BB203F007039AB2FB8A1343FB82A2
:1041CC00FB681B68FA8ADA6052E0012387F8223018
:1041DC004EE097F82330082B27D801A252F823F091
:1041EC001142000819420008214200083742000819
:1041FC0027420008374200083742000837420008BF
:10420C002F420008FEF774FEF86114E0FEF786FEFC
:10421C00F86110E01D4BFB610DE0FEF7D3FDF8617A
:10422C0009E04FF40043FB6105E00023FB6101232F
:10423C0087F8223000BFFB69002B19D0FB685B6844
:10424C005A08FB691A44FB685B68B2FBF3F3BB6169
:10425C00BB690F2B09D9BB69B3F5803F05D2BB698C
:10426C009AB2FB681B68DA6002E0012387F82230FF
:10427C00FB6800229A66FB680022DA6697F8223007
:10428C0018462837BD46BDE8B08F00BF0024F400A7
:10429C0080B483B000AF78607B685B6A03F008037E
:1042AC00002B0AD07B681B685B6823F400417B6899
:1042BC005A6B7B681B680A435A607B685B6A03F025
:1042CC000103002B0AD07B681B685B6823F4003168
:1042DC007B689A6A7B681B680A435A607B685B6AD6
:1042EC0003F00203002B0AD07B681B685B6823F485
:1042FC0080317B68DA6A7B681B680A435A607B688A
:10430C005B6A03F00403002B0AD07B681B685B68B4
:10431C0023F480217B681A6B7B681B680A435A6004
:10432C007B685B6A03F01003002B0AD07B681B6868
:10433C009B6823F480517B689A6B7B681B680A43EB
:10434C009A607B685B6A03F02003002B0AD07B68C1
:10435C001B689B6823F400517B68DA6B7B681B68D5
:10436C000A439A607B685B6A03F04003002B1AD007
:10437C007B681B685B6823F480117B681A6C7B6814
:10438C001B680A435A607B681B6CB3F5801F0AD10B
:10439C007B681B685B6823F4C0017B685A6C7B6884
:1043AC001B680A435A607B685B6A03F08003002B2E
:1043BC000AD07B681B685B6823F400217B689A6CCD
:1043CC007B681B680A435A6000BF0C37BD465DF81A
:1043DC00047B704780B598B002AF78607B68002290
:1043EC00C3F88420FDF7C0F878657B681B681B68F0
:1043FC0003F00803082B2ED16FF07E4300937B6DE6
:10440C0000224FF40011786800F08CF80346002B62
:10441C0021D07B681B68BB63BB6B53E8003F7B639D
:10442C007B6B23F080033B657B681B681A463B6DF6
:10443C007B643A64396C7A6C41E80023FB63FB6B58
:10444C00002BE6D17B682022DA677B68002283F898
:10445C007820032362E07B681B681B6803F004036D
:10446C00042B49D16FF07E4300937B6D00224FF4F7
:10447C008001786800F056F80346002B3CD07B682E
:10448C001B687B627B6A53E8003F3B623B6A23F408
:10449C009073FB647B681B681A46FB6C3B63FA6287
:1044AC00F96A3A6B41E80023BB62BB6A002BE6D188
:1044BC007B681B6808333B613B6953E8003FFB603A
:1044CC00FB6823F00103BB647B681B680833BA6C80
:1044DC00FA61BB61B969FA6941E800237B617B69C8
:1044EC00002BE5D17B682022C3F880207B6800225A
:1044FC0083F87820032311E07B682022DA677B683D
:10450C002022C3F880207B6800221A667B68002278
:10451C005A667B68002283F87820002318465837A7
:10452C00BD4680BD80B584B000AFF860B9603B601B
:10453C001346FB7149E0BB69B3F1FF3F45D0FDF772
:10454C0013F802463B68D31ABA699A4202D3BB6984
:10455C00002B01D1032348E0FB681B681B6803F0A8
:10456C000403002B31D0FB681B68DB6903F00803E4
:10457C00082B10D1FB681B6808221A62F86800F03F
:10458C00FFF8FB680822C3F88420FB68002283F83C
:10459C007820012329E0FB681B68DB6903F40063C6
:1045AC00B3F5006F11D1FB681B684FF400621A62FF
:1045BC00F86800F0E5F8FB682022C3F88420FB685B
:1045CC00002283F8782003230FE0FB681B68DA696C
:1045DC00BB681340BA689A420CBF01230023DBB2BC
:1045EC001A46FB799A42A6D0002318461037BD46CE
:1045FC0080BD000080B497B000AFF860B96013467E
:10460C00FB80FB68BA685A65FB68FA88A3F85820E7
:10461C00FB68FA88A3F85A20FB6800229A66FB68AC
:10462C009B68B3F5805F0ED1FB681B69002B05D12D
:10463C00FB6840F2FF12A3F85C202DE0FB68FF2220
:10464C00A3F85C2028E0FB689B68002B0DD1FB686D
:10465C001B69002B04D1FB68FF22A3F85C201BE034
:10466C00FB687F22A3F85C2016E0FB689B68B3F123
:10467C00805F0DD1FB681B69002B04D1FB687F2286
:10468C00A3F85C2008E0FB683F22A3F85C2003E061
:10469C00FB680022A3F85C20FB680022C3F884208E
:1046AC00FB682222C3F88020FB681B680833FB637D
:1046BC00FB6B53E8003FBB63BB6B43F001037B65B3
:1046CC00FB681B6808337A6DBA647B64796CBA6CCE
:1046DC0041E800233B643B6C002BE5D1FB689B68F5
:1046EC00B3F5805F07D1FB681B69002B03D1FB6816
:1046FC00214A9A6602E0FB68204A9A66FB681B69AD
:10470C00002B19D0FB681B68BB62BB6A53E8003FE7
:10471C007B627B6A43F49073FB64FB681B681A46EC
:10472C00FB6C7B633A63396B7A6B41E80023FB6269
:10473C00FB6A002BE6D118E0FB681B687B617B6988
:10474C0053E8003F3B613B6943F020033B65FB684A
:10475C001B681A463B6D3B62FA61F9693A6A41E89B
:10476C000023BB61BB69002BE6D1002318465C37E4
:10477C00BD465DF8047B7047914A0008D548000897
:10478C0080B495B000AF78607B681B687B637B6BF3
:10479C0053E8003F3B633B6B23F49073FB647B68F3
:1047AC001B681A46FB6C3B64FA63F96B3A6C41E884
:1047BC000023BB63BB6B002BE6D17B681B68083303
:1047CC003B623B6A53E8003FFB61FB6923F001034A
:1047DC00BB647B681B680833BA6CFA62BB62B96A4B
:1047EC00FA6A41E800237B627B6A002BE5D17B6887
:1047FC001B6E012B18D17B681B68FB60FB6853E8B0
:10480C00003FBB60BB6823F010037B647B681B68B4
:10481C001A467B6CBB617A617969BA6941E80023FD
:10482C003B613B69002BE6D17B682022C3F88020DA
:10483C007B6800221A667B6800229A6600BF543798
:10484C00BD465DF8047B704780B584B000AF7860DE
:10485C007B689B6AFB60FB680022A3F85A20FB680C
:10486C000022A3F85220F868FFF7AEFA00BF103709
:10487C00BD4680BD80B588B000AF78607B681B6892
:10488C00FB60FB6853E8003FBB60BB6823F0400350
:10489C00FB617B681B681A46FB69BB617A617969AD
:1048AC00BA6941E800233B613B69002BE6D17B6888
:1048BC002022DA677B680022DA667868FFF770FAE4
:1048CC0000BF2037BD4680BD80B59CB000AF78607E
:1048DC007B68B3F85C30A7F86E307B68D3F8803017
:1048EC00222B40F0BE807B681B689B8CA7F86C3039
:1048FC00B7F86C30D9B2B7F86E30DAB27B685B6D52
:10490C000A40D2B21A707B685B6D5A1C7B685A6580
:10491C007B68B3F85A309BB2013B9AB27B68A3F820
:10492C005A207B68B3F85A309BB2002B40F0A3801E
:10493C007B681B68FB64FB6C53E8003FBB64BB6C7F
:10494C0023F49073BB667B681B681A46BB6EBB6511
:10495C007A65796DBA6D41E800233B653B6D002BA0
:10496C00E6D17B681B680833BB63BB6B53E8003F25
:10497C007B637B6B23F001037B667B681B680833CE
:10498C007A6E7A643B64396C7A6C41E80023FB6381
:10499C00FB6B002BE5D17B682022C3F880207B6861
:1049AC0000229A667B6800225A667B681B68344A30
:1049BC0093421FD07B681B685B6803F40003002BD9
:1049CC0018D07B681B687B627B6A53E8003F3B62B4
:1049DC003B6A23F080633B667B681B681A463B6E20
:1049EC003B63FA62F96A3A6B41E80023BB62BB6A2B
:1049FC00002BE6D17B681B6E012B2ED17B6800222D
:104A0C001A667B681B683B613B6953E8003FFB609F
:104A1C00FB6823F01003FB657B681B681A46FB6D73
:104A2C00FB61BA61B969FA6941E800237B617B6972
:104A3C00002BE6D17B681B68DB6903F01003102B9D
:104A4C0003D17B681B6810221A627B68B3F858305C
:104A5C0019467868FCF7AAF90DE07868FFF7AAF90F
:104A6C0009E07B681B681B8B9AB27B681B6842F061
:104A7C00080292B21A8300BF7037BD4680BD00BFDA
:104A8C000080004080B59CB000AF78607B68B3F8C4
:104A9C005C30A7F86E307B68D3F88030222B40F066
:104AAC00BE807B681B689B8CA7F86C307B685B6D49
:104ABC00BB66B7F86C20B7F86E3013409AB2BB6E79
:104ACC001A807B685B6D9A1C7B685A657B68B3F8AF
:104ADC005A309BB2013B9AB27B68A3F85A207B6890
:104AEC00B3F85A309BB2002B40F0A3807B681B6854
:104AFC00BB64BB6C53E8003F7B647B6C23F490730A
:104B0C007B667B681B681A467B6E7B653A65396DE4
:104B1C007A6D41E80023FB64FB6C002BE6D17B68CB
:104B2C001B6808337B637B6B53E8003F3B633B6B39
:104B3C0023F001033B667B681B6808333A6E3A64CA
:104B4C00FB63F96B3A6C41E80023BB63BB6B002B36
:104B5C00E5D17B682022C3F880207B6800229A660E
:104B6C007B6800225A667B681B68344A93421FD0CC
:104B7C007B681B685B6803F40003002B18D07B6810
:104B8C001B683B623B6A53E8003FFB61FB6923F007
:104B9C008063FB657B681B681A46FB6DFB62BA621F
:104BAC00B96AFA6A41E800237B627B6A002BE6D182
:104BBC007B681B6E012B2ED17B6800221A667B68EA
:104BCC001B68FB60FB6853E8003FBB60BB6823F0CD
:104BDC001003BB657B681B681A46BB6DBB617A61B1
:104BEC007969BA6941E800233B613B69002BE6D146
:104BFC007B681B68DB6903F01003102B03D17B6807
:104C0C001B6810221A627B68B3F858301946786812
:104C1C00FCF7CCF80DE07868FFF7CCF809E07B687E
:104C2C001B681B8B9AB27B681B6842F0080292B21D
:104C3C001A8300BF7037BD4680BD00BF00800040A6
:104C4C0080B483B000AF786000BF0C37BD465DF810
:104C5C00047B704780B58CB000AFF860B960134628
:104C6C00FB80002387F82F30FB68D3F88030202B93
:104C7C003BD1BB68002B02D0FB88002B01D1012358
:104C8C0034E0FB6801221A66FB6800225A66FB8836
:104C9C001A46B968F868FFF7ADFCFB681B6E012B70
:104CAC001DD1FB681B6810221A62FB681B68BB6174
:104CBC00BB6953E8003F7B617B6943F01003BB6227
:104CCC00FB681B681A46BB6A7B623A62396A7A6A6D
:104CDC0041E80023FB61FB69002BE6D102E00123D4
:104CEC0087F82F3097F82F3000E002231846303722
:104CFC00BD4680BD024B0A460146186800F002B85A
:104D0C002C00002070B5A1FB02543CB9294600F0E0
:104D1C0037F8064628B90026304670BD0C220260D2
:104D2C00F9E72A46214600F0C7F8F5E7024B0146A1
:104D3C00186800F013B900BF2C00002070B50F4E9E
:104D4C000C463168054611B900F0BEF830602146BA
:104D5C00284600F0B9F8431C03D14FF0FF3420462D
:104D6C0070BDC41C24F00304A042F8D0211A2846BC
:104D7C0000F0AAF80130F2D1EFE700BF8009002063
:104D8C002DE9F843CD1C25F0030508350C2D38BF53
:104D9C000C25002D064601DBA94204D90C233360F7
:104DAC000020BDE8F883DFF8D48000F069F8D8F86B
:104DBC0000301C4644BB29463046FFF7BFFF431C5E
:104DCC00044658D1D8F800402746002F43D1002C78
:104DDC004BD023683946304604EB030900F074F8D5
:104DEC00814542D121686D1A29463046FFF7A6FF4E
:104DFC0001303AD023682B442360D8F800305A682D
:104E0C0062BBC8F800700FE02268521B20D40B2A3A
:104E1C0017D96119A342256018BF5960636808BF90
:104E2C00C8F8001062514B60304600F02FF804F1C6
:104E3C000B00231D20F00700C21A1CBF1B1AA35025
:104E4C00AFE76268A3420CBFC8F800205A60EBE7DA
:104E5C0023466468AEE73C467F68B6E71A465B6853
:104E6C00A342FBD100235360DEE70C2333603046B2
:104E7C0000F00CF894E70560D6E700BF8409002029
:104E8C00014800F05BB800BFC40A0020014800F0E4
:104E9C0056B800BFC40A002010B501390244904234
:104EAC0001D1002005E0037811F8014FA34201D095
:104EBC00181B10BD0130F2E702440346934200D1A7
:104ECC00704703F8011BF9E738B5064D002304467B
:104EDC0008462B60FCF7AEF8431C02D12B6803B1DB
:104EEC00236038BDC00A0020014B1868704700BF12
:104EFC002C00002070B50D4D0D4C641BA410002629
:104F0C00A64209D10B4D0C4C00F072F8641BA41096
:104F1C000026A64205D170BD55F8043B98470136D2
:104F2C00EEE755F8043B98470136F2E76450000869
:104F3C0064500008645000086850000870477047BF
:104F4C000A44914200F1FF3300D1704710B511F8BB
:104F5C00014B03F8014F9142F9D110BD38B505460C
:104F6C00002941D051F8043C0C1F002BB8BFE418A9
:104F7C00FFF786FF1D4A136833B963601460284637
:104F8C00BDE83840FFF782BFA34208D9206821183A
:104F9C008B4201BF19685B6809182160EDE71A465E
:104FAC005B680BB1A342FAD911685018A0420BD11F
:104FBC0020680144501883421160E0D118685B6886
:104FCC00536008441060DAE702D90C232B60D6E753
:104FDC00206821188B4204BF19685B68636004BFAA
:104FEC00091821605460CAE738BD00BF840900204D
:104FFC00F8B500BFF8BC08BC9E467047F8B500BFBA
:08500C00F8BC08BC9E46704789
:105014000000000000000000010203040607080964
:105024000000000001020304A0860100400D0300FB
:10503400801A060000350C0040420F0080841E00D8
:1050440000093D0000127A000024F40000366E01CD
:085054000048E801006CDC02D9
:08505C00A0B1FF7F010000007C
:04506400B10100088E
:045068008D010008AE
:10506C0000093D00100000000100000000000000DD
:10507C000000000000000000000000000100000023
:10508C0000000000000000000000000030000020C4
:10509C000000000088090020F0090020580A0020B8
:1050AC0000000000000000000000000000000000F4
:1050BC0000000000000000000000000000000000E4
:1050CC0000000000000000000000000000000000D4
:0C50DC00000000000000000000000000C8
:04000005080013D903
:00000001FF
